{
  "abi": [
    {
      "anonymous": false,
      "inputs": [
        {
          "indexed": true,
          "internalType": "address",
          "name": "tokenAddress",
          "type": "address"
        },
        {
          "indexed": true,
          "internalType": "uint256",
          "name": "tokenID",
          "type": "uint256"
        },
        {
          "indexed": true,
          "internalType": "uint256",
          "name": "statID",
          "type": "uint256"
        },
        {
          "indexed": false,
          "internalType": "uint256",
          "name": "value",
          "type": "uint256"
        }
      ],
      "name": "StatAssigned",
      "type": "event"
    },
    {
      "anonymous": false,
      "inputs": [
        {
          "indexed": false,
          "internalType": "uint256",
          "name": "statID",
          "type": "uint256"
        }
      ],
      "name": "StatCreated",
      "type": "event"
    },
    {
      "anonymous": false,
      "inputs": [
        {
          "indexed": true,
          "internalType": "uint256",
          "name": "statID",
          "type": "uint256"
        },
        {
          "indexed": false,
          "internalType": "string",
          "name": "descriptor",
          "type": "string"
        }
      ],
      "name": "StatDescriptorUpdated",
      "type": "event"
    },
    {
      "inputs": [],
      "name": "NumStats",
      "outputs": [
        {
          "internalType": "uint256",
          "name": "",
          "type": "uint256"
        }
      ],
      "stateMutability": "view",
      "type": "function"
    },
    {
      "inputs": [
        {
          "internalType": "address",
          "name": "tokenAddress",
          "type": "address"
        },
        {
          "internalType": "uint256",
          "name": "tokenID",
          "type": "uint256"
        },
        {
          "internalType": "uint256[]",
          "name": "statIDs",
          "type": "uint256[]"
        },
        {
          "internalType": "uint256[]",
          "name": "values",
          "type": "uint256[]"
        }
      ],
      "name": "assignStats",
      "outputs": [],
      "stateMutability": "nonpayable",
      "type": "function"
    },
    {
      "inputs": [
        {
          "internalType": "address[]",
          "name": "tokenAddresses",
          "type": "address[]"
        },
        {
          "internalType": "uint256[]",
          "name": "tokenIDs",
          "type": "uint256[]"
        },
        {
          "internalType": "uint256[][]",
          "name": "statIDs",
          "type": "uint256[][]"
        },
        {
          "internalType": "uint256[][]",
          "name": "values",
          "type": "uint256[][]"
        }
      ],
      "name": "batchAssignStats",
      "outputs": [],
      "stateMutability": "nonpayable",
      "type": "function"
    },
    {
      "inputs": [
        {
          "internalType": "address[]",
          "name": "tokenAddresses",
          "type": "address[]"
        },
        {
          "internalType": "uint256[]",
          "name": "tokenIDs",
          "type": "uint256[]"
        },
        {
          "internalType": "uint256[]",
          "name": "statIDs",
          "type": "uint256[]"
        }
      ],
      "name": "batchGetStats",
      "outputs": [
        {
          "internalType": "uint256[][]",
          "name": "",
          "type": "uint256[][]"
        }
      ],
      "stateMutability": "view",
      "type": "function"
    },
    {
      "inputs": [
        {
          "internalType": "string",
          "name": "descriptor",
          "type": "string"
        }
      ],
      "name": "createStat",
      "outputs": [
        {
          "internalType": "uint256",
          "name": "statID",
          "type": "uint256"
        }
      ],
      "stateMutability": "nonpayable",
      "type": "function"
    },
    {
      "inputs": [
        {
          "internalType": "uint256",
          "name": "statID",
          "type": "uint256"
        }
      ],
      "name": "describeStat",
      "outputs": [
        {
          "internalType": "string",
          "name": "",
          "type": "string"
        }
      ],
      "stateMutability": "view",
      "type": "function"
    },
    {
      "inputs": [
        {
          "internalType": "address",
          "name": "tokenAddress",
          "type": "address"
        },
        {
          "internalType": "uint256",
          "name": "tokenID",
          "type": "uint256"
        },
        {
          "internalType": "uint256[]",
          "name": "statIDs",
          "type": "uint256[]"
        }
      ],
      "name": "getStats",
      "outputs": [
        {
          "internalType": "uint256[]",
          "name": "",
          "type": "uint256[]"
        }
      ],
      "stateMutability": "view",
      "type": "function"
    },
    {
      "inputs": [
        {
          "internalType": "address",
          "name": "account",
          "type": "address"
        }
      ],
      "name": "isAdministrator",
      "outputs": [
        {
          "internalType": "bool",
          "name": "",
          "type": "bool"
        }
      ],
      "stateMutability": "view",
      "type": "function"
    },
    {
      "inputs": [
        {
          "internalType": "uint256",
          "name": "statID",
          "type": "uint256"
        },
        {
          "internalType": "string",
          "name": "descriptor",
          "type": "string"
        }
      ],
      "name": "setStatDescriptor",
      "outputs": [],
      "stateMutability": "nonpayable",
      "type": "function"
    },
    {
      "inputs": [],
      "name": "statBlockVersion",
      "outputs": [
        {
          "internalType": "string",
          "name": "",
          "type": "string"
        }
      ],
      "stateMutability": "view",
      "type": "function"
    }
  ],
  "bytecode": {
    "object": "0x60c06040526005608090815264302e302e3160d81b60a052600090620000269082620000e0565b503480156200003457600080fd5b50620001ac565b634e487b7160e01b600052604160045260246000fd5b600181811c908216806200006657607f821691505b6020821081036200008757634e487b7160e01b600052602260045260246000fd5b50919050565b601f821115620000db57600081815260208120601f850160051c81016020861015620000b65750805b601f850160051c820191505b81811015620000d757828155600101620000c2565b5050505b505050565b81516001600160401b03811115620000fc57620000fc6200003b565b62000114816200010d845462000051565b846200008d565b602080601f8311600181146200014c5760008415620001335750858301515b600019600386901b1c1916600185901b178555620000d7565b600085815260208120601f198616915b828110156200017d578886015182559484019460019091019084016200015c565b50858210156200019c5787850151600019600388901b60f8161c191681555b5050505050600190811b01905550565b610fe480620001bc6000396000f3fe608060405234801561001057600080fd5b506004361061009e5760003560e01c80638e171f74116100665780638e171f741461012b578063a9ac652c1461014b578063cfad39b11461015e578063f1fb61e014610173578063f799b0301461018657600080fd5b80630a2eb301146100a3578063105b039c146100cc5780631b720f9a146100e157806333603f6a146100f85780635d1c972314610118575b600080fd5b6100b76100b13660046108d8565b50600090565b60405190151581526020015b60405180910390f35b6100d4610199565b6040516100c391906108fa565b6100ea60015481565b6040519081526020016100c3565b61010b610106366004610a80565b610227565b6040516100c39190610b08565b6100ea610126366004610c02565b61038e565b61013e610139366004610c3f565b610411565b6040516100c39190610c8c565b6100d4610159366004610cd0565b6104e7565b61017161016c366004610ce9565b610589565b005b610171610181366004610d30565b610611565b610171610194366004610e2e565b6107aa565b600080546101a690610ecf565b80601f01602080910402602001604051908101604052809291908181526020018280546101d290610ecf565b801561021f5780601f106101f45761010080835404028352916020019161021f565b820191906000526020600020905b81548152906001019060200180831161020257829003601f168201915b505050505081565b606082518451146102ba5760405162461bcd60e51b815260206004820152604c60248201527f53746174426c6f636b2e626174636847657453746174733a20746f6b656e416460448201527f6472657373657320616e6420746f6b656e494473206d7573742062652074686560648201526b040e6c2daca40d8cadccee8d60a31b608482015260a4015b60405180910390fd5b6000845167ffffffffffffffff8111156102d6576102d6610948565b60405190808252806020026020018201604052801561030957816020015b60608152602001906001900390816102f45790505b50905060005b85518110156103855761035586828151811061032d5761032d610f09565b602002602001015186838151811061034757610347610f09565b602002602001015186610411565b82828151811061036757610367610f09565b6020026020010181905250808061037d90610f1f565b91505061030f565b50949350505050565b600060405162461bcd60e51b815260206004820152604a60248201527f53746174426c6f636b2e637265617465537461743a206d73672e73656e64657260448201527f206d75737420626520616e2061646d696e6973747261746f72206f66207468656064820152692053746174426c6f636b60b01b608482015260a4016102b1565b60606000825167ffffffffffffffff81111561042f5761042f610948565b604051908082528060200260200182016040528015610458578160200160208202803683370190505b50905060005b8351811015610385576001600160a01b0386166000908152600360209081526040808320888452909152812085519091908690849081106104a1576104a1610f09565b60200260200101518152602001908152602001600020548282815181106104ca576104ca610f09565b6020908102919091010152806104df81610f1f565b91505061045e565b600081815260026020526040902080546060919061050490610ecf565b80601f016020809104026020016040519081016040528092919081815260200182805461053090610ecf565b801561057d5780601f106105525761010080835404028352916020019161057d565b820191906000526020600020905b81548152906001019060200180831161056057829003601f168201915b50505050509050919050565b60405162461bcd60e51b815260206004820152605160248201527f53746174426c6f636b2e7365745374617444657363726970746f723a206d736760448201527f2e73656e646572206d75737420626520616e2061646d696e6973747261746f72606482015270206f66207468652053746174426c6f636b60781b608482015260a4016102b1565b60405162461bcd60e51b815260206004820152604b60248201527f53746174426c6f636b2e61737369676e53746174733a206d73672e73656e646560448201527f72206d75737420626520616e2061646d696e6973747261746f72206f6620746860648201526a652053746174426c6f636b60a81b608482015260a4016102b1565b82518110156107a3578181815181106106ae576106ae610f09565b602002602001015160036000876001600160a01b03166001600160a01b031681526020019081526020016000206000868152602001908152602001600020600085848151811061070057610700610f09565b602002602001015181526020019081526020016000208190555082818151811061072c5761072c610f09565b602002602001015184866001600160a01b03167fe9b793c30dcdfe88c097c6514559ea9906629911c611bfef29cea40525bf3c4a85858151811061077257610772610f09565b602002602001015160405161078991815260200190565b60405180910390a48061079b81610f1f565b915050610693565b5050505050565b60405162461bcd60e51b815260206004820152605060248201527f53746174426c6f636b2e626174636841737369676e53746174733a206d73672e60448201527f73656e646572206d75737420626520616e2061646d696e6973747261746f722060648201526f6f66207468652053746174426c6f636b60801b608482015260a4016102b1565b84518110156107a3576108aa85828151811061084f5761084f610f09565b602002602001015185838151811061086957610869610f09565b602002602001015185848151811061088357610883610f09565b602002602001015185858151811061089d5761089d610f09565b6020026020010151610611565b806108b481610f1f565b915050610831565b80356001600160a01b03811681146108d357600080fd5b919050565b6000602082840312156108ea57600080fd5b6108f3826108bc565b9392505050565b600060208083528351808285015260005b818110156109275785810183015185820160400152820161090b565b506000604082860101526040601f19601f8301168501019250505092915050565b634e487b7160e01b600052604160045260246000fd5b604051601f8201601f1916810167ffffffffffffffff8111828210171561098757610987610948565b604052919050565b600067ffffffffffffffff8211156109a9576109a9610948565b5060051b60200190565b600082601f8301126109c457600080fd5b813560206109d96109d48361098f565b61095e565b82815260059290921b840181019181810190868411156109f857600080fd5b8286015b84811015610a1a57610a0d816108bc565b83529183019183016109fc565b509695505050505050565b600082601f830112610a3657600080fd5b81356020610a466109d48361098f565b82815260059290921b84018101918181019086841115610a6557600080fd5b8286015b84811015610a1a5780358352918301918301610a69565b600080600060608486031215610a9557600080fd5b833567ffffffffffffffff80821115610aad57600080fd5b610ab9878388016109b3565b94506020860135915080821115610acf57600080fd5b610adb87838801610a25565b93506040860135915080821115610af157600080fd5b50610afe86828701610a25565b9150509250925092565b6000602080830181845280855180835260408601915060408160051b87010192508387016000805b83811015610b8457888603603f19018552825180518088529088019088880190845b81811015610b6e5783518352928a0192918a0191600101610b52565b5090975050509386019391860191600101610b30565b509398975050505050505050565b600082601f830112610ba357600080fd5b813567ffffffffffffffff811115610bbd57610bbd610948565b610bd0601f8201601f191660200161095e565b818152846020838601011115610be557600080fd5b816020850160208301376000918101602001919091529392505050565b600060208284031215610c1457600080fd5b813567ffffffffffffffff811115610c2b57600080fd5b610c3784828501610b92565b949350505050565b600080600060608486031215610c5457600080fd5b610c5d846108bc565b925060208401359150604084013567ffffffffffffffff811115610c8057600080fd5b610afe86828701610a25565b6020808252825182820181905260009190848201906040850190845b81811015610cc457835183529284019291840191600101610ca8565b50909695505050505050565b600060208284031215610ce257600080fd5b5035919050565b60008060408385031215610cfc57600080fd5b82359150602083013567ffffffffffffffff811115610d1a57600080fd5b610d2685828601610b92565b9150509250929050565b60008060008060808587031215610d4657600080fd5b610d4f856108bc565b935060208501359250604085013567ffffffffffffffff80821115610d7357600080fd5b610d7f88838901610a25565b93506060870135915080821115610d9557600080fd5b50610da287828801610a25565b91505092959194509250565b600082601f830112610dbf57600080fd5b81356020610dcf6109d48361098f565b82815260059290921b84018101918181019086841115610dee57600080fd5b8286015b84811015610a1a57803567ffffffffffffffff811115610e125760008081fd5b610e208986838b0101610a25565b845250918301918301610df2565b60008060008060808587031215610e4457600080fd5b843567ffffffffffffffff80821115610e5c57600080fd5b610e68888389016109b3565b95506020870135915080821115610e7e57600080fd5b610e8a88838901610a25565b94506040870135915080821115610ea057600080fd5b610eac88838901610dae565b93506060870135915080821115610ec257600080fd5b50610da287828801610dae565b600181811c90821680610ee357607f821691505b602082108103610f0357634e487b7160e01b600052602260045260246000fd5b50919050565b634e487b7160e01b600052603260045260246000fd5b600060018201610f3f57634e487b7160e01b600052601160045260246000fd5b5060010190565b81811015610f5957828155600101610f46565b505050505050565b82811015610f8057888601518255948401946001909101908401610f61565b5085821015610f9e5787850151600019600388901b60f8161c191681555b5050505050600190811b0190555056fea26469706673582212206d608496e10386c90e16902ec82925df580bafa632db340bd3646cda47507a6a64736f6c63430008140033",
    "linkReferences": {}
  },
  "methodIdentifiers": {
    "NumStats()": "1b720f9a",
    "assignStats(address,uint256,uint256[],uint256[])": "f1fb61e0",
    "batchAssignStats(address[],uint256[],uint256[][],uint256[][])": "f799b030",
    "batchGetStats(address[],uint256[],uint256[])": "33603f6a",
    "createStat(string)": "5d1c9723",
    "describeStat(uint256)": "a9ac652c",
    "getStats(address,uint256,uint256[])": "8e171f74",
    "isAdministrator(address)": "0a2eb301",
    "setStatDescriptor(uint256,string)": "cfad39b1",
    "statBlockVersion()": "105b039c"
  },
  "id": 35
}