{
  "abi": [
    {
      "inputs": [
        {
          "internalType": "address",
          "name": "adminTerminusAddress",
          "type": "address"
        },
        {
          "internalType": "uint256",
          "name": "adminTerminusPoolID",
          "type": "uint256"
        }
      ],
      "stateMutability": "nonpayable",
      "type": "constructor"
    },
    {
      "anonymous": false,
      "inputs": [
        {
          "indexed": true,
          "internalType": "address",
          "name": "tokenAddress",
          "type": "address"
        },
        {
          "indexed": true,
          "internalType": "uint256",
          "name": "tokenID",
          "type": "uint256"
        },
        {
          "indexed": true,
          "internalType": "uint256",
          "name": "statID",
          "type": "uint256"
        },
        {
          "indexed": false,
          "internalType": "uint256",
          "name": "value",
          "type": "uint256"
        }
      ],
      "name": "StatAssigned",
      "type": "event"
    },
    {
      "anonymous": false,
      "inputs": [
        {
          "indexed": false,
          "internalType": "uint256",
          "name": "statID",
          "type": "uint256"
        }
      ],
      "name": "StatCreated",
      "type": "event"
    },
    {
      "anonymous": false,
      "inputs": [
        {
          "indexed": true,
          "internalType": "uint256",
          "name": "statID",
          "type": "uint256"
        },
        {
          "indexed": false,
          "internalType": "string",
          "name": "descriptor",
          "type": "string"
        }
      ],
      "name": "StatDescriptorUpdated",
      "type": "event"
    },
    {
      "inputs": [],
      "name": "NumStats",
      "outputs": [
        {
          "internalType": "uint256",
          "name": "",
          "type": "uint256"
        }
      ],
      "stateMutability": "view",
      "type": "function"
    },
    {
      "inputs": [],
      "name": "adminTerminusInfo",
      "outputs": [
        {
          "internalType": "address",
          "name": "",
          "type": "address"
        },
        {
          "internalType": "uint256",
          "name": "",
          "type": "uint256"
        }
      ],
      "stateMutability": "view",
      "type": "function"
    },
    {
      "inputs": [
        {
          "internalType": "address",
          "name": "tokenAddress",
          "type": "address"
        },
        {
          "internalType": "uint256",
          "name": "tokenID",
          "type": "uint256"
        },
        {
          "internalType": "uint256[]",
          "name": "statIDs",
          "type": "uint256[]"
        },
        {
          "internalType": "uint256[]",
          "name": "values",
          "type": "uint256[]"
        }
      ],
      "name": "assignStats",
      "outputs": [],
      "stateMutability": "nonpayable",
      "type": "function"
    },
    {
      "inputs": [
        {
          "internalType": "address[]",
          "name": "tokenAddresses",
          "type": "address[]"
        },
        {
          "internalType": "uint256[]",
          "name": "tokenIDs",
          "type": "uint256[]"
        },
        {
          "internalType": "uint256[][]",
          "name": "statIDs",
          "type": "uint256[][]"
        },
        {
          "internalType": "uint256[][]",
          "name": "values",
          "type": "uint256[][]"
        }
      ],
      "name": "batchAssignStats",
      "outputs": [],
      "stateMutability": "nonpayable",
      "type": "function"
    },
    {
      "inputs": [
        {
          "internalType": "address[]",
          "name": "tokenAddresses",
          "type": "address[]"
        },
        {
          "internalType": "uint256[]",
          "name": "tokenIDs",
          "type": "uint256[]"
        },
        {
          "internalType": "uint256[]",
          "name": "statIDs",
          "type": "uint256[]"
        }
      ],
      "name": "batchGetStats",
      "outputs": [
        {
          "internalType": "uint256[][]",
          "name": "",
          "type": "uint256[][]"
        }
      ],
      "stateMutability": "view",
      "type": "function"
    },
    {
      "inputs": [
        {
          "internalType": "string",
          "name": "descriptor",
          "type": "string"
        }
      ],
      "name": "createStat",
      "outputs": [
        {
          "internalType": "uint256",
          "name": "statID",
          "type": "uint256"
        }
      ],
      "stateMutability": "nonpayable",
      "type": "function"
    },
    {
      "inputs": [
        {
          "internalType": "uint256",
          "name": "statID",
          "type": "uint256"
        }
      ],
      "name": "describeStat",
      "outputs": [
        {
          "internalType": "string",
          "name": "",
          "type": "string"
        }
      ],
      "stateMutability": "view",
      "type": "function"
    },
    {
      "inputs": [
        {
          "internalType": "address",
          "name": "tokenAddress",
          "type": "address"
        },
        {
          "internalType": "uint256",
          "name": "tokenID",
          "type": "uint256"
        },
        {
          "internalType": "uint256[]",
          "name": "statIDs",
          "type": "uint256[]"
        }
      ],
      "name": "getStats",
      "outputs": [
        {
          "internalType": "uint256[]",
          "name": "",
          "type": "uint256[]"
        }
      ],
      "stateMutability": "view",
      "type": "function"
    },
    {
      "inputs": [
        {
          "internalType": "address",
          "name": "account",
          "type": "address"
        }
      ],
      "name": "isAdministrator",
      "outputs": [
        {
          "internalType": "bool",
          "name": "",
          "type": "bool"
        }
      ],
      "stateMutability": "view",
      "type": "function"
    },
    {
      "inputs": [
        {
          "internalType": "uint256",
          "name": "statID",
          "type": "uint256"
        },
        {
          "internalType": "string",
          "name": "descriptor",
          "type": "string"
        }
      ],
      "name": "setStatDescriptor",
      "outputs": [],
      "stateMutability": "nonpayable",
      "type": "function"
    },
    {
      "inputs": [],
      "name": "statBlockVersion",
      "outputs": [
        {
          "internalType": "string",
          "name": "",
          "type": "string"
        }
      ],
      "stateMutability": "view",
      "type": "function"
    }
  ],
  "bytecode": {
    "object": "0x60c06040526005608090815264302e302e3160d81b60a05260009062000026908262000126565b503480156200003457600080fd5b50604051620016f8380380620016f88339810160408190526200005791620001f2565b600480546001600160a01b0319166001600160a01b0393909316929092179091556005556200022e565b634e487b7160e01b600052604160045260246000fd5b600181811c90821680620000ac57607f821691505b602082108103620000cd57634e487b7160e01b600052602260045260246000fd5b50919050565b601f8211156200012157600081815260208120601f850160051c81016020861015620000fc5750805b601f850160051c820191505b818110156200011d5782815560010162000108565b5050505b505050565b81516001600160401b0381111562000142576200014262000081565b6200015a8162000153845462000097565b84620000d3565b602080601f831160018114620001925760008415620001795750858301515b600019600386901b1c1916600185901b1785556200011d565b600085815260208120601f198616915b82811015620001c357888601518255948401946001909101908401620001a2565b5085821015620001e25787850151600019600388901b60f8161c191681555b5050505050600190811b01905550565b600080604083850312156200020657600080fd5b82516001600160a01b03811681146200021e57600080fd5b6020939093015192949293505050565b6114ba806200023e6000396000f3fe608060405234801561001057600080fd5b50600436106100a95760003560e01c80638e171f74116100715780638e171f7414610135578063a69d733714610155578063a9ac652c1461018b578063cfad39b11461019e578063f1fb61e0146101b3578063f799b030146101c657600080fd5b80630a2eb301146100ae578063105b039c146100d65780631b720f9a146100eb57806333603f6a146101025780635d1c972314610122575b600080fd5b6100c16100bc366004610cf9565b6101d9565b60405190151581526020015b60405180910390f35b6100de610262565b6040516100cd9190610d1b565b6100f460015481565b6040519081526020016100cd565b610115610110366004610e9f565b6102f0565b6040516100cd9190610f26565b6100f461013036600461101f565b610456565b61014861014336600461105b565b610586565b6040516100cd91906110a7565b61016c6004546005546001600160a01b0390911691565b604080516001600160a01b0390931683526020830191909152016100cd565b6100de6101993660046110eb565b61065b565b6101b16101ac366004611104565b6106fd565b005b6101b16101c136600461114a565b6107e7565b6101b16101d4366004611246565b610a11565b60048054600554604051627eeac760e11b81526001600160a01b03858116948201949094526024810191909152600092909116908290829062fdd58e90604401602060405180830381865afa158015610236573d6000803e3d6000fd5b505050506040513d601f19601f8201168201806040525081019061025a91906112e6565b119392505050565b6000805461026f906112ff565b80601f016020809104026020016040519081016040528092919081815260200182805461029b906112ff565b80156102e85780601f106102bd576101008083540402835291602001916102e8565b820191906000526020600020905b8154815290600101906020018083116102cb57829003601f168201915b505050505081565b606082518451146103835760405162461bcd60e51b815260206004820152604c60248201527f53746174426c6f636b2e626174636847657453746174733a20746f6b656e416460448201527f6472657373657320616e6420746f6b656e494473206d7573742062652074686560648201526b040e6c2daca40d8cadccee8d60a31b608482015260a4015b60405180910390fd5b600084516001600160401b0381111561039e5761039e610d69565b6040519080825280602002602001820160405280156103d157816020015b60608152602001906001900390816103bc5790505b50905060005b855181101561044d5761041d8682815181106103f5576103f5611339565b602002602001015186838151811061040f5761040f611339565b602002602001015186610586565b82828151811061042f5761042f611339565b602002602001018190525080806104459061134f565b9150506103d7565b50949350505050565b6000610461336101d9565b6104e65760405162461bcd60e51b815260206004820152604a60248201527f53746174426c6f636b2e637265617465537461743a206d73672e73656e64657260448201527f206d75737420626520616e2061646d696e6973747261746f72206f66207468656064820152692053746174426c6f636b60b01b608482015260a40161037a565b6001600081546104f59061134f565b9182905550600081815260026020526040902090915061051583826113c5565b506040518181527ff3ce573c45b8324851954086f08ec04e99547734a450e4f5f885be29e72a8af89060200160405180910390a1807f0dd15a6119f41ee2fe5e35cf9a28a004ce1064b98c9b37e3f9fcb6386f078c69836040516105799190610d1b565b60405180910390a2919050565b6060600082516001600160401b038111156105a3576105a3610d69565b6040519080825280602002602001820160405280156105cc578160200160208202803683370190505b50905060005b835181101561044d576001600160a01b03861660009081526003602090815260408083208884529091528120855190919086908490811061061557610615611339565b602002602001015181526020019081526020016000205482828151811061063e5761063e611339565b6020908102919091010152806106538161134f565b9150506105d2565b6000818152600260205260409020805460609190610678906112ff565b80601f01602080910402602001604051908101604052809291908181526020018280546106a4906112ff565b80156106f15780601f106106c6576101008083540402835291602001916106f1565b820191906000526020600020905b8154815290600101906020018083116106d457829003601f168201915b50505050509050919050565b610706336101d9565b6107925760405162461bcd60e51b815260206004820152605160248201527f53746174426c6f636b2e7365745374617444657363726970746f723a206d736760448201527f2e73656e646572206d75737420626520616e2061646d696e6973747261746f72606482015270206f66207468652053746174426c6f636b60781b608482015260a40161037a565b60008281526002602052604090206107aa82826113c5565b50817f0dd15a6119f41ee2fe5e35cf9a28a004ce1064b98c9b37e3f9fcb6386f078c69826040516107db9190610d1b565b60405180910390a25050565b6107f0336101d9565b6108765760405162461bcd60e51b815260206004820152604b60248201527f53746174426c6f636b2e61737369676e53746174733a206d73672e73656e646560448201527f72206d75737420626520616e2061646d696e6973747261746f72206f6620746860648201526a652053746174426c6f636b60a81b608482015260a40161037a565b80518251146108f75760405162461bcd60e51b815260206004820152604160248201527f53746174426c6f636b2e61737369676e53746174733a2073746174494473206160448201527f6e642076616c756573206d757374206265207468652073616d65206c656e67746064820152600d60fb1b608482015260a40161037a565b60005b8251811015610a0a5781818151811061091557610915611339565b602002602001015160036000876001600160a01b03166001600160a01b031681526020019081526020016000206000868152602001908152602001600020600085848151811061096757610967611339565b602002602001015181526020019081526020016000208190555082818151811061099357610993611339565b602002602001015184866001600160a01b03167fe9b793c30dcdfe88c097c6514559ea9906629911c611bfef29cea40525bf3c4a8585815181106109d9576109d9611339565b60200260200101516040516109f091815260200190565b60405180910390a480610a028161134f565b9150506108fa565b5050505050565b610a1a336101d9565b610aa55760405162461bcd60e51b815260206004820152605060248201527f53746174426c6f636b2e626174636841737369676e53746174733a206d73672e60448201527f73656e646572206d75737420626520616e2061646d696e6973747261746f722060648201526f6f66207468652053746174426c6f636b60801b608482015260a40161037a565b8251845114610b345760405162461bcd60e51b815260206004820152604f60248201527f53746174426c6f636b2e626174636841737369676e53746174733a20746f6b6560448201527f6e41646472657373657320616e6420746f6b656e494473206d7573742062652060648201526e0e8d0ca40e6c2daca40d8cadccee8d608b1b608482015260a40161037a565b8151845114610bc25760405162461bcd60e51b815260206004820152604e60248201527f53746174426c6f636b2e626174636841737369676e53746174733a20746f6b6560448201527f6e41646472657373657320616e642073746174494473206d757374206265207460648201526d0d0ca40e6c2daca40d8cadccee8d60931b608482015260a40161037a565b8051845114610c4f5760405162461bcd60e51b815260206004820152604d60248201527f53746174426c6f636b2e626174636841737369676e53746174733a20746f6b6560448201527f6e41646472657373657320616e642076616c756573206d75737420626520746860648201526c0ca40e6c2daca40d8cadccee8d609b1b608482015260a40161037a565b60005b8451811015610a0a57610ccb858281518110610c7057610c70611339565b6020026020010151858381518110610c8a57610c8a611339565b6020026020010151858481518110610ca457610ca4611339565b6020026020010151858581518110610cbe57610cbe611339565b60200260200101516107e7565b80610cd58161134f565b915050610c52565b80356001600160a01b0381168114610cf457600080fd5b919050565b600060208284031215610d0b57600080fd5b610d1482610cdd565b9392505050565b600060208083528351808285015260005b81811015610d4857858101830151858201604001528201610d2c565b506000604082860101526040601f19601f8301168501019250505092915050565b634e487b7160e01b600052604160045260246000fd5b604051601f8201601f191681016001600160401b0381118282101715610da757610da7610d69565b604052919050565b60006001600160401b03821115610dc857610dc8610d69565b5060051b60200190565b600082601f830112610de357600080fd5b81356020610df8610df383610daf565b610d7f565b82815260059290921b84018101918181019086841115610e1757600080fd5b8286015b84811015610e3957610e2c81610cdd565b8352918301918301610e1b565b509695505050505050565b600082601f830112610e5557600080fd5b81356020610e65610df383610daf565b82815260059290921b84018101918181019086841115610e8457600080fd5b8286015b84811015610e395780358352918301918301610e88565b600080600060608486031215610eb457600080fd5b83356001600160401b0380821115610ecb57600080fd5b610ed787838801610dd2565b94506020860135915080821115610eed57600080fd5b610ef987838801610e44565b93506040860135915080821115610f0f57600080fd5b50610f1c86828701610e44565b9150509250925092565b6000602080830181845280855180835260408601915060408160051b87010192508387016000805b83811015610fa257888603603f19018552825180518088529088019088880190845b81811015610f8c5783518352928a0192918a0191600101610f70565b5090975050509386019391860191600101610f4e565b509398975050505050505050565b600082601f830112610fc157600080fd5b81356001600160401b03811115610fda57610fda610d69565b610fed601f8201601f1916602001610d7f565b81815284602083860101111561100257600080fd5b816020850160208301376000918101602001919091529392505050565b60006020828403121561103157600080fd5b81356001600160401b0381111561104757600080fd5b61105384828501610fb0565b949350505050565b60008060006060848603121561107057600080fd5b61107984610cdd565b92506020840135915060408401356001600160401b0381111561109b57600080fd5b610f1c86828701610e44565b6020808252825182820181905260009190848201906040850190845b818110156110df578351835292840192918401916001016110c3565b50909695505050505050565b6000602082840312156110fd57600080fd5b5035919050565b6000806040838503121561111757600080fd5b8235915060208301356001600160401b0381111561113457600080fd5b61114085828601610fb0565b9150509250929050565b6000806000806080858703121561116057600080fd5b61116985610cdd565b93506020850135925060408501356001600160401b038082111561118c57600080fd5b61119888838901610e44565b935060608701359150808211156111ae57600080fd5b506111bb87828801610e44565b91505092959194509250565b600082601f8301126111d857600080fd5b813560206111e8610df383610daf565b82815260059290921b8401810191818101908684111561120757600080fd5b8286015b84811015610e395780356001600160401b0381111561122a5760008081fd5b6112388986838b0101610e44565b84525091830191830161120b565b6000806000806080858703121561125c57600080fd5b84356001600160401b038082111561127357600080fd5b61127f88838901610dd2565b9550602087013591508082111561129557600080fd5b6112a188838901610e44565b945060408701359150808211156112b757600080fd5b6112c3888389016111c7565b935060608701359150808211156112d957600080fd5b506111bb878288016111c7565b6000602082840312156112f857600080fd5b5051919050565b600181811c9082168061131357607f821691505b60208210810361133357634e487b7160e01b600052602260045260246000fd5b50919050565b634e487b7160e01b600052603260045260246000fd5b60006001820161136f57634e487b7160e01b600052601160045260246000fd5b5060010190565b601f8211156113c057600081815260208120601f850160051c8101602086101561139d5750805b601f850160051c820191505b818110156113bc578281556001016113a9565b5050505b505050565b81516001600160401b038111156113de576113de610d69565b6113f2816113ec84546112ff565b84611376565b602080601f831160018114611427576000841561140f5750858301515b600019600386901b1c1916600185901b1785556113bc565b600085815260208120601f198616915b8281101561145657888601518255948401946001909101908401611437565b50858210156114745787850151600019600388901b60f8161c191681555b5050505050600190811b0190555056fea2646970667358221220da057364b88794092e123c96f970c9640aab626d4ec87412a0cbe3b61fc1b5d364736f6c63430008140033",
    "linkReferences": {}
  },
  "methodIdentifiers": {
    "NumStats()": "1b720f9a",
    "adminTerminusInfo()": "a69d7337",
    "assignStats(address,uint256,uint256[],uint256[])": "f1fb61e0",
    "batchAssignStats(address[],uint256[],uint256[][],uint256[][])": "f799b030",
    "batchGetStats(address[],uint256[],uint256[])": "33603f6a",
    "createStat(string)": "5d1c9723",
    "describeStat(uint256)": "a9ac652c",
    "getStats(address,uint256,uint256[])": "8e171f74",
    "isAdministrator(address)": "0a2eb301",
    "setStatDescriptor(uint256,string)": "cfad39b1",
    "statBlockVersion()": "105b039c"
  },
  "id": 35
}