{
  "abi": [
    {
      "inputs": [
        {
          "internalType": "address",
          "name": "feeTokenAddress",
          "type": "address"
        },
        {
          "internalType": "uint256",
          "name": "sessionStartPrice",
          "type": "uint256"
        },
        {
          "internalType": "uint256",
          "name": "sessionJoinPrice",
          "type": "uint256"
        },
        {
          "internalType": "address",
          "name": "treasuryAddress",
          "type": "address"
        },
        {
          "internalType": "uint256",
          "name": "blocksPerPhase",
          "type": "uint256"
        }
      ],
      "stateMutability": "nonpayable",
      "type": "constructor"
    },
    {
      "inputs": [
        {
          "internalType": "address",
          "name": "target",
          "type": "address"
        }
      ],
      "name": "AddressEmptyCode",
      "type": "error"
    },
    {
      "inputs": [
        {
          "internalType": "address",
          "name": "account",
          "type": "address"
        }
      ],
      "name": "AddressInsufficientBalance",
      "type": "error"
    },
    {
      "inputs": [],
      "name": "FailedInnerCall",
      "type": "error"
    },
    {
      "inputs": [
        {
          "internalType": "address",
          "name": "token",
          "type": "address"
        }
      ],
      "name": "SafeERC20FailedOperation",
      "type": "error"
    },
    {
      "anonymous": false,
      "inputs": [
        {
          "indexed": true,
          "internalType": "uint256",
          "name": "sessionID",
          "type": "uint256"
        },
        {
          "indexed": true,
          "internalType": "address",
          "name": "nftAddress",
          "type": "address"
        },
        {
          "indexed": true,
          "internalType": "uint256",
          "name": "tokenID",
          "type": "uint256"
        }
      ],
      "name": "SessionExited",
      "type": "event"
    },
    {
      "anonymous": false,
      "inputs": [
        {
          "indexed": true,
          "internalType": "uint256",
          "name": "sessionID",
          "type": "uint256"
        },
        {
          "indexed": true,
          "internalType": "address",
          "name": "nftAddress",
          "type": "address"
        },
        {
          "indexed": true,
          "internalType": "uint256",
          "name": "tokenID",
          "type": "uint256"
        },
        {
          "indexed": false,
          "internalType": "enum PlayerType",
          "name": "role",
          "type": "uint8"
        }
      ],
      "name": "SessionJoined",
      "type": "event"
    },
    {
      "anonymous": false,
      "inputs": [
        {
          "indexed": true,
          "internalType": "uint256",
          "name": "sessionID",
          "type": "uint256"
        },
        {
          "indexed": true,
          "internalType": "address",
          "name": "nftAddress",
          "type": "address"
        },
        {
          "indexed": true,
          "internalType": "uint256",
          "name": "tokenID",
          "type": "uint256"
        },
        {
          "indexed": false,
          "internalType": "enum PlayerType",
          "name": "role",
          "type": "uint8"
        }
      ],
      "name": "SessionStarted",
      "type": "event"
    },
    {
      "anonymous": false,
      "inputs": [
        {
          "indexed": true,
          "internalType": "address",
          "name": "tokenAddress",
          "type": "address"
        },
        {
          "indexed": true,
          "internalType": "uint256",
          "name": "tokenID",
          "type": "uint256"
        },
        {
          "indexed": true,
          "internalType": "uint256",
          "name": "statID",
          "type": "uint256"
        },
        {
          "indexed": false,
          "internalType": "uint256",
          "name": "value",
          "type": "uint256"
        }
      ],
      "name": "StatAssigned",
      "type": "event"
    },
    {
      "anonymous": false,
      "inputs": [
        {
          "indexed": false,
          "internalType": "uint256",
          "name": "statID",
          "type": "uint256"
        }
      ],
      "name": "StatCreated",
      "type": "event"
    },
    {
      "anonymous": false,
      "inputs": [
        {
          "indexed": true,
          "internalType": "uint256",
          "name": "statID",
          "type": "uint256"
        },
        {
          "indexed": false,
          "internalType": "string",
          "name": "descriptor",
          "type": "string"
        }
      ],
      "name": "StatDescriptorUpdated",
      "type": "event"
    },
    {
      "inputs": [],
      "name": "BlocksPerPhase",
      "outputs": [
        {
          "internalType": "uint256",
          "name": "",
          "type": "uint256"
        }
      ],
      "stateMutability": "view",
      "type": "function"
    },
    {
      "inputs": [],
      "name": "FeeTokenAddress",
      "outputs": [
        {
          "internalType": "address",
          "name": "",
          "type": "address"
        }
      ],
      "stateMutability": "view",
      "type": "function"
    },
    {
      "inputs": [],
      "name": "NumSessions",
      "outputs": [
        {
          "internalType": "uint256",
          "name": "",
          "type": "uint256"
        }
      ],
      "stateMutability": "view",
      "type": "function"
    },
    {
      "inputs": [],
      "name": "NumStats",
      "outputs": [
        {
          "internalType": "uint256",
          "name": "",
          "type": "uint256"
        }
      ],
      "stateMutability": "view",
      "type": "function"
    },
    {
      "inputs": [],
      "name": "SessionJoinPrice",
      "outputs": [
        {
          "internalType": "uint256",
          "name": "",
          "type": "uint256"
        }
      ],
      "stateMutability": "view",
      "type": "function"
    },
    {
      "inputs": [],
      "name": "SessionStartPrice",
      "outputs": [
        {
          "internalType": "uint256",
          "name": "",
          "type": "uint256"
        }
      ],
      "stateMutability": "view",
      "type": "function"
    },
    {
      "inputs": [
        {
          "internalType": "uint256",
          "name": "",
          "type": "uint256"
        }
      ],
      "name": "SessionState",
      "outputs": [
        {
          "internalType": "uint256",
          "name": "startBlock",
          "type": "uint256"
        },
        {
          "internalType": "uint256",
          "name": "commitmentsBlock",
          "type": "uint256"
        },
        {
          "internalType": "address",
          "name": "pitcherAddress",
          "type": "address"
        },
        {
          "internalType": "uint256",
          "name": "pitcherTokenID",
          "type": "uint256"
        },
        {
          "internalType": "bool",
          "name": "didPitcherCommit",
          "type": "bool"
        },
        {
          "internalType": "bool",
          "name": "didPitcherReveal",
          "type": "bool"
        },
        {
          "internalType": "bytes",
          "name": "pitcherCommit",
          "type": "bytes"
        },
        {
          "components": [
            {
              "internalType": "uint256",
              "name": "nonce",
              "type": "uint256"
            },
            {
              "internalType": "enum PitchType",
              "name": "kind",
              "type": "uint8"
            },
            {
              "internalType": "enum VerticalLocation",
              "name": "vertical",
              "type": "uint8"
            },
            {
              "internalType": "enum HorizontalLocation",
              "name": "horizontal",
              "type": "uint8"
            }
          ],
          "internalType": "struct Pitch",
          "name": "pitcherReveal",
          "type": "tuple"
        },
        {
          "internalType": "address",
          "name": "batterAddress",
          "type": "address"
        },
        {
          "internalType": "uint256",
          "name": "batterTokenID",
          "type": "uint256"
        },
        {
          "internalType": "bool",
          "name": "didBatterCommit",
          "type": "bool"
        },
        {
          "internalType": "bool",
          "name": "didBatterReveal",
          "type": "bool"
        },
        {
          "internalType": "bytes",
          "name": "batterCommit",
          "type": "bytes"
        },
        {
          "components": [
            {
              "internalType": "uint256",
              "name": "nonce",
              "type": "uint256"
            },
            {
              "internalType": "enum SwingType",
              "name": "kind",
              "type": "uint8"
            },
            {
              "internalType": "enum VerticalLocation",
              "name": "vertical",
              "type": "uint8"
            },
            {
              "internalType": "enum HorizontalLocation",
              "name": "horizontal",
              "type": "uint8"
            }
          ],
          "internalType": "struct Swing",
          "name": "batterReveal",
          "type": "tuple"
        }
      ],
      "stateMutability": "view",
      "type": "function"
    },
    {
      "inputs": [
        {
          "internalType": "address",
          "name": "",
          "type": "address"
        },
        {
          "internalType": "uint256",
          "name": "",
          "type": "uint256"
        }
      ],
      "name": "StakedSession",
      "outputs": [
        {
          "internalType": "uint256",
          "name": "",
          "type": "uint256"
        }
      ],
      "stateMutability": "view",
      "type": "function"
    },
    {
      "inputs": [
        {
          "internalType": "address",
          "name": "",
          "type": "address"
        },
        {
          "internalType": "uint256",
          "name": "",
          "type": "uint256"
        }
      ],
      "name": "Staker",
      "outputs": [
        {
          "internalType": "address",
          "name": "",
          "type": "address"
        }
      ],
      "stateMutability": "view",
      "type": "function"
    },
    {
      "inputs": [],
      "name": "TreasuryAddress",
      "outputs": [
        {
          "internalType": "address",
          "name": "",
          "type": "address"
        }
      ],
      "stateMutability": "view",
      "type": "function"
    },
    {
      "inputs": [
        {
          "internalType": "address",
          "name": "tokenAddress",
          "type": "address"
        },
        {
          "internalType": "uint256",
          "name": "tokenID",
          "type": "uint256"
        },
        {
          "internalType": "uint256[]",
          "name": "statIDs",
          "type": "uint256[]"
        },
        {
          "internalType": "uint256[]",
          "name": "values",
          "type": "uint256[]"
        }
      ],
      "name": "assignStats",
      "outputs": [],
      "stateMutability": "nonpayable",
      "type": "function"
    },
    {
      "inputs": [
        {
          "internalType": "address[]",
          "name": "tokenAddresses",
          "type": "address[]"
        },
        {
          "internalType": "uint256[]",
          "name": "tokenIDs",
          "type": "uint256[]"
        },
        {
          "internalType": "uint256[][]",
          "name": "statIDs",
          "type": "uint256[][]"
        },
        {
          "internalType": "uint256[][]",
          "name": "values",
          "type": "uint256[][]"
        }
      ],
      "name": "batchAssignStats",
      "outputs": [],
      "stateMutability": "nonpayable",
      "type": "function"
    },
    {
      "inputs": [
        {
          "internalType": "address[]",
          "name": "tokenAddresses",
          "type": "address[]"
        },
        {
          "internalType": "uint256[]",
          "name": "tokenIDs",
          "type": "uint256[]"
        },
        {
          "internalType": "uint256[]",
          "name": "statIDs",
          "type": "uint256[]"
        }
      ],
      "name": "batchGetStats",
      "outputs": [
        {
          "internalType": "uint256[][]",
          "name": "",
          "type": "uint256[][]"
        }
      ],
      "stateMutability": "view",
      "type": "function"
    },
    {
      "inputs": [
        {
          "internalType": "string",
          "name": "descriptor",
          "type": "string"
        }
      ],
      "name": "createStat",
      "outputs": [
        {
          "internalType": "uint256",
          "name": "statID",
          "type": "uint256"
        }
      ],
      "stateMutability": "nonpayable",
      "type": "function"
    },
    {
      "inputs": [
        {
          "internalType": "uint256",
          "name": "statID",
          "type": "uint256"
        }
      ],
      "name": "describeStat",
      "outputs": [
        {
          "internalType": "string",
          "name": "",
          "type": "string"
        }
      ],
      "stateMutability": "view",
      "type": "function"
    },
    {
      "inputs": [
        {
          "internalType": "uint256",
          "name": "sessionID",
          "type": "uint256"
        }
      ],
      "name": "getSession",
      "outputs": [
        {
          "components": [
            {
              "internalType": "uint256",
              "name": "startBlock",
              "type": "uint256"
            },
            {
              "internalType": "uint256",
              "name": "commitmentsBlock",
              "type": "uint256"
            },
            {
              "internalType": "address",
              "name": "pitcherAddress",
              "type": "address"
            },
            {
              "internalType": "uint256",
              "name": "pitcherTokenID",
              "type": "uint256"
            },
            {
              "internalType": "bool",
              "name": "didPitcherCommit",
              "type": "bool"
            },
            {
              "internalType": "bool",
              "name": "didPitcherReveal",
              "type": "bool"
            },
            {
              "internalType": "bytes",
              "name": "pitcherCommit",
              "type": "bytes"
            },
            {
              "components": [
                {
                  "internalType": "uint256",
                  "name": "nonce",
                  "type": "uint256"
                },
                {
                  "internalType": "enum PitchType",
                  "name": "kind",
                  "type": "uint8"
                },
                {
                  "internalType": "enum VerticalLocation",
                  "name": "vertical",
                  "type": "uint8"
                },
                {
                  "internalType": "enum HorizontalLocation",
                  "name": "horizontal",
                  "type": "uint8"
                }
              ],
              "internalType": "struct Pitch",
              "name": "pitcherReveal",
              "type": "tuple"
            },
            {
              "internalType": "address",
              "name": "batterAddress",
              "type": "address"
            },
            {
              "internalType": "uint256",
              "name": "batterTokenID",
              "type": "uint256"
            },
            {
              "internalType": "bool",
              "name": "didBatterCommit",
              "type": "bool"
            },
            {
              "internalType": "bool",
              "name": "didBatterReveal",
              "type": "bool"
            },
            {
              "internalType": "bytes",
              "name": "batterCommit",
              "type": "bytes"
            },
            {
              "components": [
                {
                  "internalType": "uint256",
                  "name": "nonce",
                  "type": "uint256"
                },
                {
                  "internalType": "enum SwingType",
                  "name": "kind",
                  "type": "uint8"
                },
                {
                  "internalType": "enum VerticalLocation",
                  "name": "vertical",
                  "type": "uint8"
                },
                {
                  "internalType": "enum HorizontalLocation",
                  "name": "horizontal",
                  "type": "uint8"
                }
              ],
              "internalType": "struct Swing",
              "name": "batterReveal",
              "type": "tuple"
            }
          ],
          "internalType": "struct Session",
          "name": "",
          "type": "tuple"
        }
      ],
      "stateMutability": "view",
      "type": "function"
    },
    {
      "inputs": [
        {
          "internalType": "address",
          "name": "tokenAddress",
          "type": "address"
        },
        {
          "internalType": "uint256",
          "name": "tokenID",
          "type": "uint256"
        },
        {
          "internalType": "uint256[]",
          "name": "statIDs",
          "type": "uint256[]"
        }
      ],
      "name": "getStats",
      "outputs": [
        {
          "internalType": "uint256[]",
          "name": "",
          "type": "uint256[]"
        }
      ],
      "stateMutability": "view",
      "type": "function"
    },
    {
      "inputs": [
        {
          "internalType": "address",
          "name": "account",
          "type": "address"
        }
      ],
      "name": "isAdministrator",
      "outputs": [
        {
          "internalType": "bool",
          "name": "",
          "type": "bool"
        }
      ],
      "stateMutability": "view",
      "type": "function"
    },
    {
      "inputs": [
        {
          "internalType": "uint256",
          "name": "sessionID",
          "type": "uint256"
        },
        {
          "internalType": "address",
          "name": "nftAddress",
          "type": "address"
        },
        {
          "internalType": "uint256",
          "name": "tokenID",
          "type": "uint256"
        }
      ],
      "name": "joinSession",
      "outputs": [],
      "stateMutability": "nonpayable",
      "type": "function"
    },
    {
      "inputs": [
        {
          "internalType": "uint256",
          "name": "statID",
          "type": "uint256"
        },
        {
          "internalType": "string",
          "name": "descriptor",
          "type": "string"
        }
      ],
      "name": "setStatDescriptor",
      "outputs": [],
      "stateMutability": "nonpayable",
      "type": "function"
    },
    {
      "inputs": [
        {
          "internalType": "address",
          "name": "nftAddress",
          "type": "address"
        },
        {
          "internalType": "uint256",
          "name": "tokenID",
          "type": "uint256"
        },
        {
          "internalType": "enum PlayerType",
          "name": "role",
          "type": "uint8"
        }
      ],
      "name": "startSession",
      "outputs": [
        {
          "internalType": "uint256",
          "name": "",
          "type": "uint256"
        }
      ],
      "stateMutability": "nonpayable",
      "type": "function"
    },
    {
      "inputs": [],
      "name": "statBlockVersion",
      "outputs": [
        {
          "internalType": "string",
          "name": "",
          "type": "string"
        }
      ],
      "stateMutability": "view",
      "type": "function"
    }
  ],
  "bytecode": {
    "object": "0x60c06040526005608090815264302e302e3160d81b60a0526000906200002690826200013f565b503480156200003457600080fd5b5060405162002ba138038062002ba1833981016040819052620000579162000228565b600480546001600160a01b03199081166001600160a01b03978816179091556005949094556006929092556007805490931693169290921790556008556200027d565b634e487b7160e01b600052604160045260246000fd5b600181811c90821680620000c557607f821691505b602082108103620000e657634e487b7160e01b600052602260045260246000fd5b50919050565b601f8211156200013a57600081815260208120601f850160051c81016020861015620001155750805b601f850160051c820191505b81811015620001365782815560010162000121565b5050505b505050565b81516001600160401b038111156200015b576200015b6200009a565b62000173816200016c8454620000b0565b84620000ec565b602080601f831160018114620001ab5760008415620001925750858301515b600019600386901b1c1916600185901b17855562000136565b600085815260208120601f198616915b82811015620001dc57888601518255948401946001909101908401620001bb565b5085821015620001fb5787850151600019600388901b60f8161c191681555b5050505050600190811b01905550565b80516001600160a01b03811681146200022357600080fd5b919050565b600080600080600060a086880312156200024157600080fd5b6200024c866200020b565b945060208601519350604086015192506200026a606087016200020b565b9150608086015190509295509295909350565b612914806200028d6000396000f3fe608060405234801561001057600080fd5b50600436106101415760003560e01c80635d1c9723116100b8578063cfad39b11161007c578063cfad39b11461030e578063d49b537f14610323578063d7d9e60114610336578063eccbc5e21461033f578063f1fb61e014610352578063f799b0301461036557600080fd5b80635d1c9723146102815780638e171f7414610294578063a1ca6a14146102b4578063a9ac652c146102e8578063b29e8256146102fb57600080fd5b8063241537ef1161010a578063241537ef146101b557806333603f6a146101e05780633728f0c1146102005780633793d6931461022d578063402ff0db146102365780635b5c251f1461025657600080fd5b806204aaad146101465780630a2eb30114610162578063105b039c1461018e5780631911227d146101a35780631b720f9a146101ac575b600080fd5b61014f60095481565b6040519081526020015b60405180910390f35b61017e610170366004611df9565b6001600160a01b0316301490565b6040519015158152602001610159565b610196610378565b6040516101599190611e66565b61014f60065481565b61014f60015481565b61014f6101c3366004611e79565b600c60209081526000928352604080842090915290825290205481565b6101f36101ee366004611fdd565b610406565b6040516101599190612064565b61021361020e3660046120ee565b61056e565b6040516101599e9d9c9b9a99989796959493929190612177565b61014f60055481565b6102496102443660046120ee565b61087d565b6040516101599190612232565b600754610269906001600160a01b031681565b6040516001600160a01b039091168152602001610159565b61014f61028f3660046123b5565b610bda565b6102a76102a23660046123f1565b610d04565b604051610159919061243f565b6102696102c2366004611e79565b600b6020908152600092835260408084209091529082529020546001600160a01b031681565b6101966102f63660046120ee565b610dd9565b600454610269906001600160a01b031681565b61032161031c366004612483565b610e7b565b005b61014f6103313660046124c9565b610f5f565b61014f60085481565b61032161034d36600461250f565b611232565b610321610360366004612547565b61164e565b610321610373366004612645565b611872565b60008054610385906126e5565b80601f01602080910402602001604051908101604052809291908181526020018280546103b1906126e5565b80156103fe5780601f106103d3576101008083540402835291602001916103fe565b820191906000526020600020905b8154815290600101906020018083116103e157829003601f168201915b505050505081565b606082518451146104995760405162461bcd60e51b815260206004820152604c60248201527f53746174426c6f636b2e626174636847657453746174733a20746f6b656e416460448201527f6472657373657320616e6420746f6b656e494473206d7573742062652074686560648201526b040e6c2daca40d8cadccee8d60a31b608482015260a4015b60405180910390fd5b600084516001600160401b038111156104b4576104b4611ea5565b6040519080825280602002602001820160405280156104e757816020015b60608152602001906001900390816104d25790505b50905060005b85518110156105635761053386828151811061050b5761050b61271f565b60200260200101518683815181106105255761052561271f565b602002602001015186610d04565b8282815181106105455761054561271f565b6020026020010181905250808061055b90612735565b9150506104ed565b5090505b9392505050565b600a60205260009081526040902080546001820154600283015460038401546004850154600586018054959694956001600160a01b0390941694929360ff80841694610100909404169291906105c3906126e5565b80601f01602080910402602001604051908101604052809291908181526020018280546105ef906126e5565b801561063c5780601f106106115761010080835404028352916020019161063c565b820191906000526020600020905b81548152906001019060200180831161061f57829003601f168201915b5050604080516080810190915260068601805482526007870154959695919450925060208401915060ff16600381111561067857610678612107565b600381111561068957610689612107565b81526020016001820160019054906101000a900460ff1660048111156106b1576106b1612107565b60048111156106c2576106c2612107565b81526020016001820160029054906101000a900460ff1660048111156106ea576106ea612107565b60048111156106fb576106fb612107565b90525060088201546009830154600a840154600b8501805494956001600160a01b0390941694929360ff80841694610100909404169290919061073d906126e5565b80601f0160208091040260200160405190810160405280929190818152602001828054610769906126e5565b80156107b65780601f1061078b576101008083540402835291602001916107b6565b820191906000526020600020905b81548152906001019060200180831161079957829003601f168201915b50506040805160808101909152600c860180548252600d870154959695919450925060208401915060ff1660038111156107f2576107f2612107565b600381111561080357610803612107565b81526020016001820160019054906101000a900460ff16600481111561082b5761082b612107565b600481111561083c5761083c612107565b81526020016001820160029054906101000a900460ff16600481111561086457610864612107565b600481111561087557610875612107565b90525090508e565b610885611d0a565b6000828152600a602090815260409182902082516101c0810184528154815260018201549281019290925260028101546001600160a01b03169282019290925260038201546060820152600482015460ff8082161515608084015261010090910416151560a082015260058201805491929160c084019190610906906126e5565b80601f0160208091040260200160405190810160405280929190818152602001828054610932906126e5565b801561097f5780601f106109545761010080835404028352916020019161097f565b820191906000526020600020905b81548152906001019060200180831161096257829003601f168201915b505050918352505060408051608081019091526006830180548252600784015460209384019383019060ff1660038111156109bc576109bc612107565b60038111156109cd576109cd612107565b81526020016001820160019054906101000a900460ff1660048111156109f5576109f5612107565b6004811115610a0657610a06612107565b81526020016001820160029054906101000a900460ff166004811115610a2e57610a2e612107565b6004811115610a3f57610a3f612107565b905250815260088201546001600160a01b0316602082015260098201546040820152600a82015460ff808216151560608401526101009091041615156080820152600b8201805460a090920191610a95906126e5565b80601f0160208091040260200160405190810160405280929190818152602001828054610ac1906126e5565b8015610b0e5780601f10610ae357610100808354040283529160200191610b0e565b820191906000526020600020905b815481529060010190602001808311610af157829003601f168201915b50505091835250506040805160808101909152600c830180548252600d84015460209384019383019060ff166003811115610b4b57610b4b612107565b6003811115610b5c57610b5c612107565b81526020016001820160019054906101000a900460ff166004811115610b8457610b84612107565b6004811115610b9557610b95612107565b81526020016001820160029054906101000a900460ff166004811115610bbd57610bbd612107565b6004811115610bce57610bce612107565b90525090525092915050565b6000303314610c645760405162461bcd60e51b815260206004820152604a60248201527f53746174426c6f636b2e637265617465537461743a206d73672e73656e64657260448201527f206d75737420626520616e2061646d696e6973747261746f72206f66207468656064820152692053746174426c6f636b60b01b608482015260a401610490565b600160008154610c7390612735565b91829055506000818152600260205260409020909150610c9383826127aa565b506040518181527ff3ce573c45b8324851954086f08ec04e99547734a450e4f5f885be29e72a8af89060200160405180910390a1807f0dd15a6119f41ee2fe5e35cf9a28a004ce1064b98c9b37e3f9fcb6386f078c6983604051610cf79190611e66565b60405180910390a2919050565b6060600082516001600160401b03811115610d2157610d21611ea5565b604051908082528060200260200182016040528015610d4a578160200160208202803683370190505b50905060005b8351811015610563576001600160a01b038616600090815260036020908152604080832088845290915281208551909190869084908110610d9357610d9361271f565b6020026020010151815260200190815260200160002054828281518110610dbc57610dbc61271f565b602090810291909101015280610dd181612735565b915050610d50565b6000818152600260205260409020805460609190610df6906126e5565b80601f0160208091040260200160405190810160405280929190818152602001828054610e22906126e5565b8015610e6f5780601f10610e4457610100808354040283529160200191610e6f565b820191906000526020600020905b815481529060010190602001808311610e5257829003601f168201915b50505050509050919050565b303314610f0a5760405162461bcd60e51b815260206004820152605160248201527f53746174426c6f636b2e7365745374617444657363726970746f723a206d736760448201527f2e73656e646572206d75737420626520616e2061646d696e6973747261746f72606482015270206f66207468652053746174426c6f636b60781b608482015260a401610490565b6000828152600260205260409020610f2282826127aa565b50817f0dd15a6119f41ee2fe5e35cf9a28a004ce1064b98c9b37e3f9fcb6386f078c6982604051610f539190611e66565b60405180910390a25050565b600480546040516331a9108f60e11b81529182018490526000916001600160a01b039182169186918491831690636352211e90602401602060405180830381865afa158015610fb2573d6000803e3d6000fd5b505050506040513d601f19601f82011682018060405250810190610fd69190612869565b9050336001600160a01b038216146110565760405162461bcd60e51b815260206004820152603b60248201527f4c696768746e696e67416e64536d6f6b652e737461727453657373696f6e3a2060448201527f6d73672e73656e646572206973206e6f74204e4654206f776e657200000000006064820152608401610490565b600754600554611078916001600160a01b038681169233929190911690611b38565b6009805490600061108883612735565b90915550600090508560018111156110a2576110a2612107565b036110e657600980546000908152600a602052604080822060020180546001600160a01b0319166001600160a01b038c161790559154815220600301869055611120565b600980546000908152600a602052604080822060080180546001600160a01b0319166001600160a01b038c16179055825482529020018690555b6001600160a01b038781166000818152600b602090815260408083208b8452825280832080546001600160a01b031916878716908117909155600954948452600c83528184208c85528352818420859055938352600a90915290819020439055516323b872dd60e01b8152600481019190915230602482015260448101889052908316906323b872dd90606401600060405180830381600087803b1580156111c757600080fd5b505af11580156111db573d6000803e3d6000fd5b5050505085876001600160a01b03166009547fbe87d3ef7a611e190e113702d514c225d954a63199570d6ba62c292d1bbaecfa8860405161121c9190612886565b60405180910390a4505060095495945050505050565b6009548311156112a25760405162461bcd60e51b815260206004820152603560248201527f4c696768746e696e67416e64536d6f6b652e6a6f696e53657373696f6e3a2073604482015274195cdcda5bdb88191bd95cc81b9bdd08195e1a5cdd605a1b6064820152608401610490565b600480546040516331a9108f60e11b81529182018390526001600160a01b0390811691849160009190831690636352211e90602401602060405180830381865afa1580156112f4573d6000803e3d6000fd5b505050506040513d601f19601f820116820180604052508101906113189190612869565b9050336001600160a01b038216146113985760405162461bcd60e51b815260206004820152603a60248201527f4c696768746e696e67416e64536d6f6b652e6a6f696e53657373696f6e3a206d60448201527f73672e73656e646572206973206e6f74204e4654206f776e65720000000000006064820152608401610490565b6007546006546113ba916001600160a01b038681169233929190911690611b38565b6000868152600a6020526040902060028101546001600160a01b0316158015906113f0575060088101546001600160a01b031615155b1561145c5760405162461bcd60e51b815260206004820152603660248201527f4c696768746e696e67416e64536d6f6b652e6a6f696e53657373696f6e3a2073604482015275195cdcda5bdb881a5cc8185b1c9958591e48199d5b1b60521b6064820152608401610490565b60028101546001600160a01b0316158015611482575060088101546001600160a01b0316155b156114ec5760405162461bcd60e51b815260206004820152603460248201527f4c696768746e696e67416e64536d6f6b652e6a6f696e53657373696f6e3a206f604482015273383837b732b73a103632b33a1039b2b9b9b4b7b760611b6064820152608401610490565b60088101546000906001600160a01b031661152d57506008810180546001600160a01b0319166001600160a01b038816179055600981018590556001611552565b6002820180546001600160a01b0319166001600160a01b038916179055600382018690555b6001600160a01b038781166000818152600b602090815260408083208b8452825280832080546001600160a01b031916898716908117909155938352600c82528083208b8452909152908190208b9055516323b872dd60e01b8152600481019190915230602482015260448101889052908516906323b872dd90606401600060405180830381600087803b1580156115e957600080fd5b505af11580156115fd573d6000803e3d6000fd5b5050505085876001600160a01b0316897f5b73123e6590975d8ac759b1f01ae33ba034238e061d8dd62ffd0fde089916938460405161163c9190612886565b60405180910390a45050505050505050565b3033146116d75760405162461bcd60e51b815260206004820152604b60248201527f53746174426c6f636b2e61737369676e53746174733a206d73672e73656e646560448201527f72206d75737420626520616e2061646d696e6973747261746f72206f6620746860648201526a652053746174426c6f636b60a81b608482015260a401610490565b80518251146117585760405162461bcd60e51b815260206004820152604160248201527f53746174426c6f636b2e61737369676e53746174733a2073746174494473206160448201527f6e642076616c756573206d757374206265207468652073616d65206c656e67746064820152600d60fb1b608482015260a401610490565b60005b825181101561186b578181815181106117765761177661271f565b602002602001015160036000876001600160a01b03166001600160a01b03168152602001908152602001600020600086815260200190815260200160002060008584815181106117c8576117c861271f565b60200260200101518152602001908152602001600020819055508281815181106117f4576117f461271f565b602002602001015184866001600160a01b03167fe9b793c30dcdfe88c097c6514559ea9906629911c611bfef29cea40525bf3c4a85858151811061183a5761183a61271f565b602002602001015160405161185191815260200190565b60405180910390a48061186381612735565b91505061175b565b5050505050565b3033146119005760405162461bcd60e51b815260206004820152605060248201527f53746174426c6f636b2e626174636841737369676e53746174733a206d73672e60448201527f73656e646572206d75737420626520616e2061646d696e6973747261746f722060648201526f6f66207468652053746174426c6f636b60801b608482015260a401610490565b825184511461198f5760405162461bcd60e51b815260206004820152604f60248201527f53746174426c6f636b2e626174636841737369676e53746174733a20746f6b6560448201527f6e41646472657373657320616e6420746f6b656e494473206d7573742062652060648201526e0e8d0ca40e6c2daca40d8cadccee8d608b1b608482015260a401610490565b8151845114611a1d5760405162461bcd60e51b815260206004820152604e60248201527f53746174426c6f636b2e626174636841737369676e53746174733a20746f6b6560448201527f6e41646472657373657320616e642073746174494473206d757374206265207460648201526d0d0ca40e6c2daca40d8cadccee8d60931b608482015260a401610490565b8051845114611aaa5760405162461bcd60e51b815260206004820152604d60248201527f53746174426c6f636b2e626174636841737369676e53746174733a20746f6b6560448201527f6e41646472657373657320616e642076616c756573206d75737420626520746860648201526c0ca40e6c2daca40d8cadccee8d609b1b608482015260a401610490565b60005b845181101561186b57611b26858281518110611acb57611acb61271f565b6020026020010151858381518110611ae557611ae561271f565b6020026020010151858481518110611aff57611aff61271f565b6020026020010151858581518110611b1957611b1961271f565b602002602001015161164e565b80611b3081612735565b915050611aad565b604080516001600160a01b0385811660248301528416604482015260648082018490528251808303909101815260849091019091526020810180516001600160e01b03166323b872dd60e01b179052611b92908590611b98565b50505050565b6000611bad6001600160a01b03841683611c00565b90508051600014158015611bd2575080806020019051810190611bd091906128a0565b155b15611bfb57604051635274afe760e01b81526001600160a01b0384166004820152602401610490565b505050565b60606105678383600084600080856001600160a01b03168486604051611c2691906128c2565b60006040518083038185875af1925050503d8060008114611c63576040519150601f19603f3d011682016040523d82523d6000602084013e611c68565b606091505b5091509150611c78868383611c82565b9695505050505050565b606082611c9757611c9282611cde565b610567565b8151158015611cae57506001600160a01b0384163b155b15611cd757604051639996b31560e01b81526001600160a01b0385166004820152602401610490565b5080610567565b805115611cee5780518082602001fd5b604051630a12f52160e11b815260040160405180910390fd5b50565b604051806101c00160405280600081526020016000815260200160006001600160a01b031681526020016000815260200160001515815260200160001515815260200160608152602001611d7f6040805160808101909152600080825260208201908152602001600081526020016000905290565b815260200160006001600160a01b031681526020016000815260200160001515815260200160001515815260200160608152602001611ddf6040805160808101909152600080825260208201908152602001600081526020016000905290565b905290565b6001600160a01b0381168114611d0757600080fd5b600060208284031215611e0b57600080fd5b813561056781611de4565b60005b83811015611e31578181015183820152602001611e19565b50506000910152565b60008151808452611e52816020860160208601611e16565b601f01601f19169290920160200192915050565b6020815260006105676020830184611e3a565b60008060408385031215611e8c57600080fd5b8235611e9781611de4565b946020939093013593505050565b634e487b7160e01b600052604160045260246000fd5b604051601f8201601f191681016001600160401b0381118282101715611ee357611ee3611ea5565b604052919050565b60006001600160401b03821115611f0457611f04611ea5565b5060051b60200190565b600082601f830112611f1f57600080fd5b81356020611f34611f2f83611eeb565b611ebb565b82815260059290921b84018101918181019086841115611f5357600080fd5b8286015b84811015611f77578035611f6a81611de4565b8352918301918301611f57565b509695505050505050565b600082601f830112611f9357600080fd5b81356020611fa3611f2f83611eeb565b82815260059290921b84018101918181019086841115611fc257600080fd5b8286015b84811015611f775780358352918301918301611fc6565b600080600060608486031215611ff257600080fd5b83356001600160401b038082111561200957600080fd5b61201587838801611f0e565b9450602086013591508082111561202b57600080fd5b61203787838801611f82565b9350604086013591508082111561204d57600080fd5b5061205a86828701611f82565b9150509250925092565b6000602080830181845280855180835260408601915060408160051b87010192508387016000805b838110156120e057888603603f19018552825180518088529088019088880190845b818110156120ca5783518352928a0192918a01916001016120ae565b509097505050938601939186019160010161208c565b509398975050505050505050565b60006020828403121561210057600080fd5b5035919050565b634e487b7160e01b600052602160045260246000fd5b60058110611d0757611d07612107565b8051825260208101516004811061214657612146612107565b602083015260408101516121598161211d565b6040830152606081015161216c8161211d565b806060840152505050565b8e8152602081018e90526001600160a01b038d166040820152606081018c90528a1515608082015289151560a082015261028060c082015260006121bf61028083018b611e3a565b6121cc60e084018b61212d565b6001600160a01b038916610160840152876101808401526121f26101a084018815159052565b8515156101c08401528281036101e084015261220e8186611e3a565b91505061221f61020083018461212d565b9f9e505050505050505050505050505050565b6020815281516020820152602082015160408201526000604083015161226360608401826001600160a01b03169052565b5060608301516080830152608083015161228160a084018215159052565b5060a083015180151560c08401525060c083015161028060e08401526122ab6102a0840182611e3a565b905060e08401516101006122c18186018361212d565b85015190506101806122dd858201836001600160a01b03169052565b6101208601516101a08681019190915261014087015115156101c087015261016087015115156101e087015281870151868503601f190161020088015292506123268484611e3a565b9350808701519250505061233e61022085018261212d565b509392505050565b600082601f83011261235757600080fd5b81356001600160401b0381111561237057612370611ea5565b612383601f8201601f1916602001611ebb565b81815284602083860101111561239857600080fd5b816020850160208301376000918101602001919091529392505050565b6000602082840312156123c757600080fd5b81356001600160401b038111156123dd57600080fd5b6123e984828501612346565b949350505050565b60008060006060848603121561240657600080fd5b833561241181611de4565b92506020840135915060408401356001600160401b0381111561243357600080fd5b61205a86828701611f82565b6020808252825182820181905260009190848201906040850190845b818110156124775783518352928401929184019160010161245b565b50909695505050505050565b6000806040838503121561249657600080fd5b8235915060208301356001600160401b038111156124b357600080fd5b6124bf85828601612346565b9150509250929050565b6000806000606084860312156124de57600080fd5b83356124e981611de4565b92506020840135915060408401356002811061250457600080fd5b809150509250925092565b60008060006060848603121561252457600080fd5b83359250602084013561253681611de4565b929592945050506040919091013590565b6000806000806080858703121561255d57600080fd5b843561256881611de4565b93506020850135925060408501356001600160401b038082111561258b57600080fd5b61259788838901611f82565b935060608701359150808211156125ad57600080fd5b506125ba87828801611f82565b91505092959194509250565b600082601f8301126125d757600080fd5b813560206125e7611f2f83611eeb565b82815260059290921b8401810191818101908684111561260657600080fd5b8286015b84811015611f775780356001600160401b038111156126295760008081fd5b6126378986838b0101611f82565b84525091830191830161260a565b6000806000806080858703121561265b57600080fd5b84356001600160401b038082111561267257600080fd5b61267e88838901611f0e565b9550602087013591508082111561269457600080fd5b6126a088838901611f82565b945060408701359150808211156126b657600080fd5b6126c2888389016125c6565b935060608701359150808211156126d857600080fd5b506125ba878288016125c6565b600181811c908216806126f957607f821691505b60208210810361271957634e487b7160e01b600052602260045260246000fd5b50919050565b634e487b7160e01b600052603260045260246000fd5b60006001820161275557634e487b7160e01b600052601160045260246000fd5b5060010190565b601f821115611bfb57600081815260208120601f850160051c810160208610156127835750805b601f850160051c820191505b818110156127a25782815560010161278f565b505050505050565b81516001600160401b038111156127c3576127c3611ea5565b6127d7816127d184546126e5565b8461275c565b602080601f83116001811461280c57600084156127f45750858301515b600019600386901b1c1916600185901b1785556127a2565b600085815260208120601f198616915b8281101561283b5788860151825594840194600190910190840161281c565b50858210156128595787850151600019600388901b60f8161c191681555b5050505050600190811b01905550565b60006020828403121561287b57600080fd5b815161056781611de4565b602081016002831061289a5761289a612107565b91905290565b6000602082840312156128b257600080fd5b8151801515811461056757600080fd5b600082516128d4818460208701611e16565b919091019291505056fea2646970667358221220cdf3d69f870262e71114905b0b65a95bb8c3937b5a853f5afcfee7deb5ad7ef664736f6c63430008140033",
    "linkReferences": {}
  },
  "methodIdentifiers": {
    "BlocksPerPhase()": "d7d9e601",
    "FeeTokenAddress()": "b29e8256",
    "NumSessions()": "0004aaad",
    "NumStats()": "1b720f9a",
    "SessionJoinPrice()": "1911227d",
    "SessionStartPrice()": "3793d693",
    "SessionState(uint256)": "3728f0c1",
    "StakedSession(address,uint256)": "241537ef",
    "Staker(address,uint256)": "a1ca6a14",
    "TreasuryAddress()": "5b5c251f",
    "assignStats(address,uint256,uint256[],uint256[])": "f1fb61e0",
    "batchAssignStats(address[],uint256[],uint256[][],uint256[][])": "f799b030",
    "batchGetStats(address[],uint256[],uint256[])": "33603f6a",
    "createStat(string)": "5d1c9723",
    "describeStat(uint256)": "a9ac652c",
    "getSession(uint256)": "402ff0db",
    "getStats(address,uint256,uint256[])": "8e171f74",
    "isAdministrator(address)": "0a2eb301",
    "joinSession(uint256,address,uint256)": "eccbc5e2",
    "setStatDescriptor(uint256,string)": "cfad39b1",
    "startSession(address,uint256,uint8)": "d49b537f",
    "statBlockVersion()": "105b039c"
  },
  "id": 38
}