{
  "abi": [
    {
      "inputs": [
        {
          "internalType": "address",
          "name": "feeTokenAddress",
          "type": "address"
        },
        {
          "internalType": "uint256",
          "name": "sessionStartPrice",
          "type": "uint256"
        },
        {
          "internalType": "uint256",
          "name": "sessionJoinPrice",
          "type": "uint256"
        },
        {
          "internalType": "address",
          "name": "treasuryAddress",
          "type": "address"
        },
        {
          "internalType": "uint256",
          "name": "blocksPerPhase",
          "type": "uint256"
        }
      ],
      "stateMutability": "nonpayable",
      "type": "constructor"
    },
    {
      "inputs": [
        {
          "internalType": "address",
          "name": "target",
          "type": "address"
        }
      ],
      "name": "AddressEmptyCode",
      "type": "error"
    },
    {
      "inputs": [
        {
          "internalType": "address",
          "name": "account",
          "type": "address"
        }
      ],
      "name": "AddressInsufficientBalance",
      "type": "error"
    },
    {
      "inputs": [],
      "name": "FailedInnerCall",
      "type": "error"
    },
    {
      "inputs": [
        {
          "internalType": "address",
          "name": "token",
          "type": "address"
        }
      ],
      "name": "SafeERC20FailedOperation",
      "type": "error"
    },
    {
      "anonymous": false,
      "inputs": [
        {
          "indexed": true,
          "internalType": "uint256",
          "name": "sessionID",
          "type": "uint256"
        },
        {
          "indexed": true,
          "internalType": "address",
          "name": "nftAddress",
          "type": "address"
        },
        {
          "indexed": true,
          "internalType": "uint256",
          "name": "tokenID",
          "type": "uint256"
        },
        {
          "indexed": false,
          "internalType": "enum PlayerType",
          "name": "role",
          "type": "uint8"
        }
      ],
      "name": "SessionJoined",
      "type": "event"
    },
    {
      "anonymous": false,
      "inputs": [
        {
          "indexed": true,
          "internalType": "uint256",
          "name": "sessionID",
          "type": "uint256"
        },
        {
          "indexed": true,
          "internalType": "address",
          "name": "nftAddress",
          "type": "address"
        },
        {
          "indexed": true,
          "internalType": "uint256",
          "name": "tokenID",
          "type": "uint256"
        },
        {
          "indexed": false,
          "internalType": "enum PlayerType",
          "name": "role",
          "type": "uint8"
        }
      ],
      "name": "SessionStarted",
      "type": "event"
    },
    {
      "anonymous": false,
      "inputs": [
        {
          "indexed": true,
          "internalType": "address",
          "name": "tokenAddress",
          "type": "address"
        },
        {
          "indexed": true,
          "internalType": "uint256",
          "name": "tokenID",
          "type": "uint256"
        },
        {
          "indexed": true,
          "internalType": "uint256",
          "name": "statID",
          "type": "uint256"
        },
        {
          "indexed": false,
          "internalType": "uint256",
          "name": "value",
          "type": "uint256"
        }
      ],
      "name": "StatAssigned",
      "type": "event"
    },
    {
      "anonymous": false,
      "inputs": [
        {
          "indexed": false,
          "internalType": "uint256",
          "name": "statID",
          "type": "uint256"
        }
      ],
      "name": "StatCreated",
      "type": "event"
    },
    {
      "anonymous": false,
      "inputs": [
        {
          "indexed": true,
          "internalType": "uint256",
          "name": "statID",
          "type": "uint256"
        },
        {
          "indexed": false,
          "internalType": "string",
          "name": "descriptor",
          "type": "string"
        }
      ],
      "name": "StatDescriptorUpdated",
      "type": "event"
    },
    {
      "inputs": [],
      "name": "BlocksPerPhase",
      "outputs": [
        {
          "internalType": "uint256",
          "name": "",
          "type": "uint256"
        }
      ],
      "stateMutability": "view",
      "type": "function"
    },
    {
      "inputs": [],
      "name": "FeeTokenAddress",
      "outputs": [
        {
          "internalType": "address",
          "name": "",
          "type": "address"
        }
      ],
      "stateMutability": "view",
      "type": "function"
    },
    {
      "inputs": [],
      "name": "NumSessions",
      "outputs": [
        {
          "internalType": "uint256",
          "name": "",
          "type": "uint256"
        }
      ],
      "stateMutability": "view",
      "type": "function"
    },
    {
      "inputs": [],
      "name": "NumStats",
      "outputs": [
        {
          "internalType": "uint256",
          "name": "",
          "type": "uint256"
        }
      ],
      "stateMutability": "view",
      "type": "function"
    },
    {
      "inputs": [],
      "name": "SessionJoinPrice",
      "outputs": [
        {
          "internalType": "uint256",
          "name": "",
          "type": "uint256"
        }
      ],
      "stateMutability": "view",
      "type": "function"
    },
    {
      "inputs": [],
      "name": "SessionStartPrice",
      "outputs": [
        {
          "internalType": "uint256",
          "name": "",
          "type": "uint256"
        }
      ],
      "stateMutability": "view",
      "type": "function"
    },
    {
      "inputs": [
        {
          "internalType": "uint256",
          "name": "",
          "type": "uint256"
        }
      ],
      "name": "SessionState",
      "outputs": [
        {
          "internalType": "uint256",
          "name": "startBlock",
          "type": "uint256"
        },
        {
          "internalType": "uint256",
          "name": "commitmentsBlock",
          "type": "uint256"
        },
        {
          "internalType": "address",
          "name": "pitcherAddress",
          "type": "address"
        },
        {
          "internalType": "uint256",
          "name": "pitcherTokenID",
          "type": "uint256"
        },
        {
          "internalType": "bool",
          "name": "didPitcherCommit",
          "type": "bool"
        },
        {
          "internalType": "bool",
          "name": "didPitcherReveal",
          "type": "bool"
        },
        {
          "internalType": "bytes",
          "name": "pitcherCommit",
          "type": "bytes"
        },
        {
          "components": [
            {
              "internalType": "uint256",
              "name": "nonce",
              "type": "uint256"
            },
            {
              "internalType": "enum PitchType",
              "name": "kind",
              "type": "uint8"
            },
            {
              "internalType": "enum VerticalLocation",
              "name": "vertical",
              "type": "uint8"
            },
            {
              "internalType": "enum HorizontalLocation",
              "name": "horizontal",
              "type": "uint8"
            }
          ],
          "internalType": "struct Pitch",
          "name": "pitcherReveal",
          "type": "tuple"
        },
        {
          "internalType": "address",
          "name": "batterAddress",
          "type": "address"
        },
        {
          "internalType": "uint256",
          "name": "batterTokenID",
          "type": "uint256"
        },
        {
          "internalType": "bool",
          "name": "didBatterCommit",
          "type": "bool"
        },
        {
          "internalType": "bool",
          "name": "didBatterReveal",
          "type": "bool"
        },
        {
          "internalType": "bytes",
          "name": "batterCommit",
          "type": "bytes"
        },
        {
          "components": [
            {
              "internalType": "uint256",
              "name": "nonce",
              "type": "uint256"
            },
            {
              "internalType": "enum SwingType",
              "name": "kind",
              "type": "uint8"
            },
            {
              "internalType": "enum VerticalLocation",
              "name": "vertical",
              "type": "uint8"
            },
            {
              "internalType": "enum HorizontalLocation",
              "name": "horizontal",
              "type": "uint8"
            }
          ],
          "internalType": "struct Swing",
          "name": "batterReveal",
          "type": "tuple"
        }
      ],
      "stateMutability": "view",
      "type": "function"
    },
    {
      "inputs": [
        {
          "internalType": "address",
          "name": "",
          "type": "address"
        },
        {
          "internalType": "uint256",
          "name": "",
          "type": "uint256"
        }
      ],
      "name": "StakedSession",
      "outputs": [
        {
          "internalType": "uint256",
          "name": "",
          "type": "uint256"
        }
      ],
      "stateMutability": "view",
      "type": "function"
    },
    {
      "inputs": [
        {
          "internalType": "address",
          "name": "",
          "type": "address"
        },
        {
          "internalType": "uint256",
          "name": "",
          "type": "uint256"
        }
      ],
      "name": "Staker",
      "outputs": [
        {
          "internalType": "address",
          "name": "",
          "type": "address"
        }
      ],
      "stateMutability": "view",
      "type": "function"
    },
    {
      "inputs": [],
      "name": "TreasuryAddress",
      "outputs": [
        {
          "internalType": "address",
          "name": "",
          "type": "address"
        }
      ],
      "stateMutability": "view",
      "type": "function"
    },
    {
      "inputs": [
        {
          "internalType": "address",
          "name": "tokenAddress",
          "type": "address"
        },
        {
          "internalType": "uint256",
          "name": "tokenID",
          "type": "uint256"
        },
        {
          "internalType": "uint256[]",
          "name": "statIDs",
          "type": "uint256[]"
        },
        {
          "internalType": "uint256[]",
          "name": "values",
          "type": "uint256[]"
        }
      ],
      "name": "assignStats",
      "outputs": [],
      "stateMutability": "nonpayable",
      "type": "function"
    },
    {
      "inputs": [
        {
          "internalType": "address[]",
          "name": "tokenAddresses",
          "type": "address[]"
        },
        {
          "internalType": "uint256[]",
          "name": "tokenIDs",
          "type": "uint256[]"
        },
        {
          "internalType": "uint256[][]",
          "name": "statIDs",
          "type": "uint256[][]"
        },
        {
          "internalType": "uint256[][]",
          "name": "values",
          "type": "uint256[][]"
        }
      ],
      "name": "batchAssignStats",
      "outputs": [],
      "stateMutability": "nonpayable",
      "type": "function"
    },
    {
      "inputs": [
        {
          "internalType": "address[]",
          "name": "tokenAddresses",
          "type": "address[]"
        },
        {
          "internalType": "uint256[]",
          "name": "tokenIDs",
          "type": "uint256[]"
        },
        {
          "internalType": "uint256[]",
          "name": "statIDs",
          "type": "uint256[]"
        }
      ],
      "name": "batchGetStats",
      "outputs": [
        {
          "internalType": "uint256[][]",
          "name": "",
          "type": "uint256[][]"
        }
      ],
      "stateMutability": "view",
      "type": "function"
    },
    {
      "inputs": [
        {
          "internalType": "string",
          "name": "descriptor",
          "type": "string"
        }
      ],
      "name": "createStat",
      "outputs": [
        {
          "internalType": "uint256",
          "name": "statID",
          "type": "uint256"
        }
      ],
      "stateMutability": "nonpayable",
      "type": "function"
    },
    {
      "inputs": [
        {
          "internalType": "uint256",
          "name": "statID",
          "type": "uint256"
        }
      ],
      "name": "describeStat",
      "outputs": [
        {
          "internalType": "string",
          "name": "",
          "type": "string"
        }
      ],
      "stateMutability": "view",
      "type": "function"
    },
    {
      "inputs": [
        {
          "internalType": "address",
          "name": "tokenAddress",
          "type": "address"
        },
        {
          "internalType": "uint256",
          "name": "tokenID",
          "type": "uint256"
        },
        {
          "internalType": "uint256[]",
          "name": "statIDs",
          "type": "uint256[]"
        }
      ],
      "name": "getStats",
      "outputs": [
        {
          "internalType": "uint256[]",
          "name": "",
          "type": "uint256[]"
        }
      ],
      "stateMutability": "view",
      "type": "function"
    },
    {
      "inputs": [
        {
          "internalType": "address",
          "name": "account",
          "type": "address"
        }
      ],
      "name": "isAdministrator",
      "outputs": [
        {
          "internalType": "bool",
          "name": "",
          "type": "bool"
        }
      ],
      "stateMutability": "view",
      "type": "function"
    },
    {
      "inputs": [
        {
          "internalType": "address",
          "name": "nftAddress",
          "type": "address"
        },
        {
          "internalType": "uint256",
          "name": "tokenID",
          "type": "uint256"
        }
      ],
      "name": "joinSession",
      "outputs": [],
      "stateMutability": "nonpayable",
      "type": "function"
    },
    {
      "inputs": [
        {
          "internalType": "uint256",
          "name": "statID",
          "type": "uint256"
        },
        {
          "internalType": "string",
          "name": "descriptor",
          "type": "string"
        }
      ],
      "name": "setStatDescriptor",
      "outputs": [],
      "stateMutability": "nonpayable",
      "type": "function"
    },
    {
      "inputs": [
        {
          "internalType": "address",
          "name": "nftAddress",
          "type": "address"
        },
        {
          "internalType": "uint256",
          "name": "tokenID",
          "type": "uint256"
        },
        {
          "internalType": "enum PlayerType",
          "name": "role",
          "type": "uint8"
        }
      ],
      "name": "startSession",
      "outputs": [
        {
          "internalType": "uint256",
          "name": "",
          "type": "uint256"
        }
      ],
      "stateMutability": "nonpayable",
      "type": "function"
    },
    {
      "inputs": [],
      "name": "statBlockVersion",
      "outputs": [
        {
          "internalType": "string",
          "name": "",
          "type": "string"
        }
      ],
      "stateMutability": "view",
      "type": "function"
    }
  ],
  "bytecode": {
    "object": "0x60c06040526005608090815264302e302e3160d81b60a0526000906200002690826200013f565b503480156200003457600080fd5b50604051620022f5380380620022f5833981016040819052620000579162000228565b600480546001600160a01b03199081166001600160a01b03978816179091556005949094556006929092556007805490931693169290921790556008556200027d565b634e487b7160e01b600052604160045260246000fd5b600181811c90821680620000c557607f821691505b602082108103620000e657634e487b7160e01b600052602260045260246000fd5b50919050565b601f8211156200013a57600081815260208120601f850160051c81016020861015620001155750805b601f850160051c820191505b81811015620001365782815560010162000121565b5050505b505050565b81516001600160401b038111156200015b576200015b6200009a565b62000173816200016c8454620000b0565b84620000ec565b602080601f831160018114620001ab5760008415620001925750858301515b600019600386901b1c1916600185901b17855562000136565b600085815260208120601f198616915b82811015620001dc57888601518255948401946001909101908401620001bb565b5085821015620001fb5787850151600019600388901b60f8161c191681555b5050505050600190811b01905550565b80516001600160a01b03811681146200022357600080fd5b919050565b600080600080600060a086880312156200024157600080fd5b6200024c866200020b565b945060208601519350604086015192506200026a606087016200020b565b9150608086015190509295509295909350565b612068806200028d6000396000f3fe608060405234801561001057600080fd5b50600436106101365760003560e01c80635d1c9723116100b8578063cfad39b11161007c578063cfad39b1146102e3578063d06b7ba5146102f8578063d49b537f1461030b578063d7d9e6011461031e578063f1fb61e014610327578063f799b0301461033a57600080fd5b80635d1c9723146102565780638e171f7414610269578063a1ca6a1414610289578063a9ac652c146102bd578063b29e8256146102d057600080fd5b8063241537ef116100ff578063241537ef146101aa57806333603f6a146101d55780633728f0c1146101f55780633793d693146102225780635b5c251f1461022b57600080fd5b806204aaad1461013b5780630a2eb30114610157578063105b039c146101835780631911227d146101985780631b720f9a146101a1575b600080fd5b61014460095481565b6040519081526020015b60405180910390f35b610173610165366004611699565b6001600160a01b0316301490565b604051901515815260200161014e565b61018b61034d565b60405161014e9190611706565b61014460065481565b61014460015481565b6101446101b8366004611719565b600c60209081526000928352604080842090915290825290205481565b6101e86101e336600461187d565b6103db565b60405161014e9190611904565b61020861020336600461198e565b610543565b60405161014e9e9d9c9b9a99989796959493929190611a17565b61014460055481565b60075461023e906001600160a01b031681565b6040516001600160a01b03909116815260200161014e565b610144610264366004611b41565b610852565b61027c610277366004611b7d565b61097c565b60405161014e9190611bcb565b61023e610297366004611719565b600b6020908152600092835260408084209091529082529020546001600160a01b031681565b61018b6102cb36600461198e565b610a51565b60045461023e906001600160a01b031681565b6102f66102f1366004611c0f565b610af3565b005b6102f6610306366004611719565b610bd7565b610144610319366004611c55565b610cf6565b61014460085481565b6102f6610335366004611c9b565b610fcf565b6102f6610348366004611d99565b6111ec565b6000805461035a90611e39565b80601f016020809104026020016040519081016040528092919081815260200182805461038690611e39565b80156103d35780601f106103a8576101008083540402835291602001916103d3565b820191906000526020600020905b8154815290600101906020018083116103b657829003601f168201915b505050505081565b6060825184511461046e5760405162461bcd60e51b815260206004820152604c60248201527f53746174426c6f636b2e626174636847657453746174733a20746f6b656e416460448201527f6472657373657320616e6420746f6b656e494473206d7573742062652074686560648201526b040e6c2daca40d8cadccee8d60a31b608482015260a4015b60405180910390fd5b600084516001600160401b0381111561048957610489611745565b6040519080825280602002602001820160405280156104bc57816020015b60608152602001906001900390816104a75790505b50905060005b8551811015610538576105088682815181106104e0576104e0611e73565b60200260200101518683815181106104fa576104fa611e73565b60200260200101518661097c565b82828151811061051a5761051a611e73565b6020026020010181905250808061053090611e89565b9150506104c2565b5090505b9392505050565b600a60205260009081526040902080546001820154600283015460038401546004850154600586018054959694956001600160a01b0390941694929360ff808416946101009094041692919061059890611e39565b80601f01602080910402602001604051908101604052809291908181526020018280546105c490611e39565b80156106115780601f106105e657610100808354040283529160200191610611565b820191906000526020600020905b8154815290600101906020018083116105f457829003601f168201915b5050604080516080810190915260068601805482526007870154959695919450925060208401915060ff16600381111561064d5761064d6119a7565b600381111561065e5761065e6119a7565b81526020016001820160019054906101000a900460ff166004811115610686576106866119a7565b6004811115610697576106976119a7565b81526020016001820160029054906101000a900460ff1660048111156106bf576106bf6119a7565b60048111156106d0576106d06119a7565b90525060088201546009830154600a840154600b8501805494956001600160a01b0390941694929360ff80841694610100909404169290919061071290611e39565b80601f016020809104026020016040519081016040528092919081815260200182805461073e90611e39565b801561078b5780601f106107605761010080835404028352916020019161078b565b820191906000526020600020905b81548152906001019060200180831161076e57829003601f168201915b50506040805160808101909152600c860180548252600d870154959695919450925060208401915060ff1660038111156107c7576107c76119a7565b60038111156107d8576107d86119a7565b81526020016001820160019054906101000a900460ff166004811115610800576108006119a7565b6004811115610811576108116119a7565b81526020016001820160029054906101000a900460ff166004811115610839576108396119a7565b600481111561084a5761084a6119a7565b90525090508e565b60003033146108dc5760405162461bcd60e51b815260206004820152604a60248201527f53746174426c6f636b2e637265617465537461743a206d73672e73656e64657260448201527f206d75737420626520616e2061646d696e6973747261746f72206f66207468656064820152692053746174426c6f636b60b01b608482015260a401610465565b6001600081546108eb90611e89565b9182905550600081815260026020526040902090915061090b8382611efe565b506040518181527ff3ce573c45b8324851954086f08ec04e99547734a450e4f5f885be29e72a8af89060200160405180910390a1807f0dd15a6119f41ee2fe5e35cf9a28a004ce1064b98c9b37e3f9fcb6386f078c698360405161096f9190611706565b60405180910390a2919050565b6060600082516001600160401b0381111561099957610999611745565b6040519080825280602002602001820160405280156109c2578160200160208202803683370190505b50905060005b8351811015610538576001600160a01b038616600090815260036020908152604080832088845290915281208551909190869084908110610a0b57610a0b611e73565b6020026020010151815260200190815260200160002054828281518110610a3457610a34611e73565b602090810291909101015280610a4981611e89565b9150506109c8565b6000818152600260205260409020805460609190610a6e90611e39565b80601f0160208091040260200160405190810160405280929190818152602001828054610a9a90611e39565b8015610ae75780601f10610abc57610100808354040283529160200191610ae7565b820191906000526020600020905b815481529060010190602001808311610aca57829003601f168201915b50505050509050919050565b303314610b825760405162461bcd60e51b815260206004820152605160248201527f53746174426c6f636b2e7365745374617444657363726970746f723a206d736760448201527f2e73656e646572206d75737420626520616e2061646d696e6973747261746f72606482015270206f66207468652053746174426c6f636b60781b608482015260a401610465565b6000828152600260205260409020610b9a8282611efe565b50817f0dd15a6119f41ee2fe5e35cf9a28a004ce1064b98c9b37e3f9fcb6386f078c6982604051610bcb9190611706565b60405180910390a25050565b600480546040516331a9108f60e11b81529182018390526001600160a01b0390811691849160009190831690636352211e90602401602060405180830381865afa158015610c29573d6000803e3d6000fd5b505050506040513d601f19601f82011682018060405250810190610c4d9190611fbd565b9050336001600160a01b03821614610ccd5760405162461bcd60e51b815260206004820152603a60248201527f4c696768746e696e67416e64536d6f6b652e6a6f696e53657373696f6e3a206d60448201527f73672e73656e646572206973206e6f74204e4654206f776e65720000000000006064820152608401610465565b600754600654610cef916001600160a01b0386811692339291909116906114b2565b5050505050565b600480546040516331a9108f60e11b81529182018490526000916001600160a01b039182169186918491831690636352211e90602401602060405180830381865afa158015610d49573d6000803e3d6000fd5b505050506040513d601f19601f82011682018060405250810190610d6d9190611fbd565b9050336001600160a01b03821614610ded5760405162461bcd60e51b815260206004820152603b60248201527f4c696768746e696e67416e64536d6f6b652e737461727453657373696f6e3a2060448201527f6d73672e73656e646572206973206e6f74204e4654206f776e657200000000006064820152608401610465565b600754600554610e0f916001600160a01b0386811692339291909116906114b2565b60098054906000610e1f83611e89565b90915550506001600160a01b038781166000818152600b602090815260408083208b8452825280832080546001600160a01b03191695871695909517909455600954928252600c81528382208a83528152838220839055918152600a909152908120439055856001811115610e9657610e966119a7565b03610eda57600980546000908152600a602052604080822060020180546001600160a01b0319166001600160a01b038c161790559154815220600301869055610f14565b600980546000908152600a602052604080822060080180546001600160a01b0319166001600160a01b038c16179055825482529020018690555b6040516323b872dd60e01b81526001600160a01b038281166004830152306024830152604482018890528316906323b872dd90606401600060405180830381600087803b158015610f6457600080fd5b505af1158015610f78573d6000803e3d6000fd5b5050505085876001600160a01b03166009547fbe87d3ef7a611e190e113702d514c225d954a63199570d6ba62c292d1bbaecfa88604051610fb99190611fda565b60405180910390a4505060095495945050505050565b3033146110585760405162461bcd60e51b815260206004820152604b60248201527f53746174426c6f636b2e61737369676e53746174733a206d73672e73656e646560448201527f72206d75737420626520616e2061646d696e6973747261746f72206f6620746860648201526a652053746174426c6f636b60a81b608482015260a401610465565b80518251146110d95760405162461bcd60e51b815260206004820152604160248201527f53746174426c6f636b2e61737369676e53746174733a2073746174494473206160448201527f6e642076616c756573206d757374206265207468652073616d65206c656e67746064820152600d60fb1b608482015260a401610465565b60005b8251811015610cef578181815181106110f7576110f7611e73565b602002602001015160036000876001600160a01b03166001600160a01b031681526020019081526020016000206000868152602001908152602001600020600085848151811061114957611149611e73565b602002602001015181526020019081526020016000208190555082818151811061117557611175611e73565b602002602001015184866001600160a01b03167fe9b793c30dcdfe88c097c6514559ea9906629911c611bfef29cea40525bf3c4a8585815181106111bb576111bb611e73565b60200260200101516040516111d291815260200190565b60405180910390a4806111e481611e89565b9150506110dc565b30331461127a5760405162461bcd60e51b815260206004820152605060248201527f53746174426c6f636b2e626174636841737369676e53746174733a206d73672e60448201527f73656e646572206d75737420626520616e2061646d696e6973747261746f722060648201526f6f66207468652053746174426c6f636b60801b608482015260a401610465565b82518451146113095760405162461bcd60e51b815260206004820152604f60248201527f53746174426c6f636b2e626174636841737369676e53746174733a20746f6b6560448201527f6e41646472657373657320616e6420746f6b656e494473206d7573742062652060648201526e0e8d0ca40e6c2daca40d8cadccee8d608b1b608482015260a401610465565b81518451146113975760405162461bcd60e51b815260206004820152604e60248201527f53746174426c6f636b2e626174636841737369676e53746174733a20746f6b6560448201527f6e41646472657373657320616e642073746174494473206d757374206265207460648201526d0d0ca40e6c2daca40d8cadccee8d60931b608482015260a401610465565b80518451146114245760405162461bcd60e51b815260206004820152604d60248201527f53746174426c6f636b2e626174636841737369676e53746174733a20746f6b6560448201527f6e41646472657373657320616e642076616c756573206d75737420626520746860648201526c0ca40e6c2daca40d8cadccee8d609b1b608482015260a401610465565b60005b8451811015610cef576114a085828151811061144557611445611e73565b602002602001015185838151811061145f5761145f611e73565b602002602001015185848151811061147957611479611e73565b602002602001015185858151811061149357611493611e73565b6020026020010151610fcf565b806114aa81611e89565b915050611427565b604080516001600160a01b0385811660248301528416604482015260648082018490528251808303909101815260849091019091526020810180516001600160e01b03166323b872dd60e01b17905261150c908590611512565b50505050565b60006115276001600160a01b0384168361157a565b9050805160001415801561154c57508080602001905181019061154a9190611ff4565b155b1561157557604051635274afe760e01b81526001600160a01b0384166004820152602401610465565b505050565b606061053c8383600084600080856001600160a01b031684866040516115a09190612016565b60006040518083038185875af1925050503d80600081146115dd576040519150601f19603f3d011682016040523d82523d6000602084013e6115e2565b606091505b50915091506115f28683836115fc565b9695505050505050565b6060826116115761160c82611658565b61053c565b815115801561162857506001600160a01b0384163b155b1561165157604051639996b31560e01b81526001600160a01b0385166004820152602401610465565b508061053c565b8051156116685780518082602001fd5b604051630a12f52160e11b815260040160405180910390fd5b50565b6001600160a01b038116811461168157600080fd5b6000602082840312156116ab57600080fd5b813561053c81611684565b60005b838110156116d15781810151838201526020016116b9565b50506000910152565b600081518084526116f28160208601602086016116b6565b601f01601f19169290920160200192915050565b60208152600061053c60208301846116da565b6000806040838503121561172c57600080fd5b823561173781611684565b946020939093013593505050565b634e487b7160e01b600052604160045260246000fd5b604051601f8201601f191681016001600160401b038111828210171561178357611783611745565b604052919050565b60006001600160401b038211156117a4576117a4611745565b5060051b60200190565b600082601f8301126117bf57600080fd5b813560206117d46117cf8361178b565b61175b565b82815260059290921b840181019181810190868411156117f357600080fd5b8286015b8481101561181757803561180a81611684565b83529183019183016117f7565b509695505050505050565b600082601f83011261183357600080fd5b813560206118436117cf8361178b565b82815260059290921b8401810191818101908684111561186257600080fd5b8286015b848110156118175780358352918301918301611866565b60008060006060848603121561189257600080fd5b83356001600160401b03808211156118a957600080fd5b6118b5878388016117ae565b945060208601359150808211156118cb57600080fd5b6118d787838801611822565b935060408601359150808211156118ed57600080fd5b506118fa86828701611822565b9150509250925092565b6000602080830181845280855180835260408601915060408160051b87010192508387016000805b8381101561198057888603603f19018552825180518088529088019088880190845b8181101561196a5783518352928a0192918a019160010161194e565b509097505050938601939186019160010161192c565b509398975050505050505050565b6000602082840312156119a057600080fd5b5035919050565b634e487b7160e01b600052602160045260246000fd5b60058110611681576116816119a7565b805182526020810151600481106119e6576119e66119a7565b602083015260408101516119f9816119bd565b60408301526060810151611a0c816119bd565b806060840152505050565b8e8152602081018e90526001600160a01b038d166040820152606081018c90528a1515608082015289151560a082015261028060c08201526000611a5f61028083018b6116da565b611a6c60e084018b6119cd565b6001600160a01b03891661016084015287610180840152611a926101a084018815159052565b8515156101c08401528281036101e0840152611aae81866116da565b915050611abf6102008301846119cd565b9f9e505050505050505050505050505050565b600082601f830112611ae357600080fd5b81356001600160401b03811115611afc57611afc611745565b611b0f601f8201601f191660200161175b565b818152846020838601011115611b2457600080fd5b816020850160208301376000918101602001919091529392505050565b600060208284031215611b5357600080fd5b81356001600160401b03811115611b6957600080fd5b611b7584828501611ad2565b949350505050565b600080600060608486031215611b9257600080fd5b8335611b9d81611684565b92506020840135915060408401356001600160401b03811115611bbf57600080fd5b6118fa86828701611822565b6020808252825182820181905260009190848201906040850190845b81811015611c0357835183529284019291840191600101611be7565b50909695505050505050565b60008060408385031215611c2257600080fd5b8235915060208301356001600160401b03811115611c3f57600080fd5b611c4b85828601611ad2565b9150509250929050565b600080600060608486031215611c6a57600080fd5b8335611c7581611684565b925060208401359150604084013560028110611c9057600080fd5b809150509250925092565b60008060008060808587031215611cb157600080fd5b8435611cbc81611684565b93506020850135925060408501356001600160401b0380821115611cdf57600080fd5b611ceb88838901611822565b93506060870135915080821115611d0157600080fd5b50611d0e87828801611822565b91505092959194509250565b600082601f830112611d2b57600080fd5b81356020611d3b6117cf8361178b565b82815260059290921b84018101918181019086841115611d5a57600080fd5b8286015b848110156118175780356001600160401b03811115611d7d5760008081fd5b611d8b8986838b0101611822565b845250918301918301611d5e565b60008060008060808587031215611daf57600080fd5b84356001600160401b0380821115611dc657600080fd5b611dd2888389016117ae565b95506020870135915080821115611de857600080fd5b611df488838901611822565b94506040870135915080821115611e0a57600080fd5b611e1688838901611d1a565b93506060870135915080821115611e2c57600080fd5b50611d0e87828801611d1a565b600181811c90821680611e4d57607f821691505b602082108103611e6d57634e487b7160e01b600052602260045260246000fd5b50919050565b634e487b7160e01b600052603260045260246000fd5b600060018201611ea957634e487b7160e01b600052601160045260246000fd5b5060010190565b601f82111561157557600081815260208120601f850160051c81016020861015611ed75750805b601f850160051c820191505b81811015611ef657828155600101611ee3565b505050505050565b81516001600160401b03811115611f1757611f17611745565b611f2b81611f258454611e39565b84611eb0565b602080601f831160018114611f605760008415611f485750858301515b600019600386901b1c1916600185901b178555611ef6565b600085815260208120601f198616915b82811015611f8f57888601518255948401946001909101908401611f70565b5085821015611fad5787850151600019600388901b60f8161c191681555b5050505050600190811b01905550565b600060208284031215611fcf57600080fd5b815161053c81611684565b6020810160028310611fee57611fee6119a7565b91905290565b60006020828403121561200657600080fd5b8151801515811461053c57600080fd5b600082516120288184602087016116b6565b919091019291505056fea2646970667358221220038e0f040ffe9f65a199d23e29f74c83ad33b7b15b14aa00a058a338c6aab73564736f6c63430008140033",
    "linkReferences": {}
  },
  "methodIdentifiers": {
    "BlocksPerPhase()": "d7d9e601",
    "FeeTokenAddress()": "b29e8256",
    "NumSessions()": "0004aaad",
    "NumStats()": "1b720f9a",
    "SessionJoinPrice()": "1911227d",
    "SessionStartPrice()": "3793d693",
    "SessionState(uint256)": "3728f0c1",
    "StakedSession(address,uint256)": "241537ef",
    "Staker(address,uint256)": "a1ca6a14",
    "TreasuryAddress()": "5b5c251f",
    "assignStats(address,uint256,uint256[],uint256[])": "f1fb61e0",
    "batchAssignStats(address[],uint256[],uint256[][],uint256[][])": "f799b030",
    "batchGetStats(address[],uint256[],uint256[])": "33603f6a",
    "createStat(string)": "5d1c9723",
    "describeStat(uint256)": "a9ac652c",
    "getStats(address,uint256,uint256[])": "8e171f74",
    "isAdministrator(address)": "0a2eb301",
    "joinSession(address,uint256)": "d06b7ba5",
    "setStatDescriptor(uint256,string)": "cfad39b1",
    "startSession(address,uint256,uint8)": "d49b537f",
    "statBlockVersion()": "105b039c"
  },
  "id": 38
}