{
  "abi": [
    {
      "inputs": [
        {
          "internalType": "address",
          "name": "feeTokenAddress",
          "type": "address"
        },
        {
          "internalType": "uint256",
          "name": "sessionStartPrice",
          "type": "uint256"
        },
        {
          "internalType": "uint256",
          "name": "sessionJoinPrice",
          "type": "uint256"
        },
        {
          "internalType": "address",
          "name": "treasuryAddress",
          "type": "address"
        },
        {
          "internalType": "uint256",
          "name": "blocksPerPhase",
          "type": "uint256"
        }
      ],
      "stateMutability": "nonpayable",
      "type": "constructor"
    },
    {
      "inputs": [
        {
          "internalType": "address",
          "name": "target",
          "type": "address"
        }
      ],
      "name": "AddressEmptyCode",
      "type": "error"
    },
    {
      "inputs": [
        {
          "internalType": "address",
          "name": "account",
          "type": "address"
        }
      ],
      "name": "AddressInsufficientBalance",
      "type": "error"
    },
    {
      "inputs": [],
      "name": "FailedInnerCall",
      "type": "error"
    },
    {
      "inputs": [
        {
          "internalType": "address",
          "name": "token",
          "type": "address"
        }
      ],
      "name": "SafeERC20FailedOperation",
      "type": "error"
    },
    {
      "anonymous": false,
      "inputs": [
        {
          "indexed": true,
          "internalType": "uint256",
          "name": "sessionID",
          "type": "uint256"
        },
        {
          "indexed": true,
          "internalType": "address",
          "name": "nftAddress",
          "type": "address"
        },
        {
          "indexed": true,
          "internalType": "uint256",
          "name": "tokenID",
          "type": "uint256"
        }
      ],
      "name": "SessionExited",
      "type": "event"
    },
    {
      "anonymous": false,
      "inputs": [
        {
          "indexed": true,
          "internalType": "uint256",
          "name": "sessionID",
          "type": "uint256"
        },
        {
          "indexed": true,
          "internalType": "address",
          "name": "nftAddress",
          "type": "address"
        },
        {
          "indexed": true,
          "internalType": "uint256",
          "name": "tokenID",
          "type": "uint256"
        },
        {
          "indexed": false,
          "internalType": "enum PlayerType",
          "name": "role",
          "type": "uint8"
        }
      ],
      "name": "SessionJoined",
      "type": "event"
    },
    {
      "anonymous": false,
      "inputs": [
        {
          "indexed": true,
          "internalType": "uint256",
          "name": "sessionID",
          "type": "uint256"
        },
        {
          "indexed": true,
          "internalType": "address",
          "name": "nftAddress",
          "type": "address"
        },
        {
          "indexed": true,
          "internalType": "uint256",
          "name": "tokenID",
          "type": "uint256"
        },
        {
          "indexed": false,
          "internalType": "enum PlayerType",
          "name": "role",
          "type": "uint8"
        }
      ],
      "name": "SessionStarted",
      "type": "event"
    },
    {
      "anonymous": false,
      "inputs": [
        {
          "indexed": true,
          "internalType": "address",
          "name": "tokenAddress",
          "type": "address"
        },
        {
          "indexed": true,
          "internalType": "uint256",
          "name": "tokenID",
          "type": "uint256"
        },
        {
          "indexed": true,
          "internalType": "uint256",
          "name": "statID",
          "type": "uint256"
        },
        {
          "indexed": false,
          "internalType": "uint256",
          "name": "value",
          "type": "uint256"
        }
      ],
      "name": "StatAssigned",
      "type": "event"
    },
    {
      "anonymous": false,
      "inputs": [
        {
          "indexed": false,
          "internalType": "uint256",
          "name": "statID",
          "type": "uint256"
        }
      ],
      "name": "StatCreated",
      "type": "event"
    },
    {
      "anonymous": false,
      "inputs": [
        {
          "indexed": true,
          "internalType": "uint256",
          "name": "statID",
          "type": "uint256"
        },
        {
          "indexed": false,
          "internalType": "string",
          "name": "descriptor",
          "type": "string"
        }
      ],
      "name": "StatDescriptorUpdated",
      "type": "event"
    },
    {
      "inputs": [],
      "name": "BlocksPerPhase",
      "outputs": [
        {
          "internalType": "uint256",
          "name": "",
          "type": "uint256"
        }
      ],
      "stateMutability": "view",
      "type": "function"
    },
    {
      "inputs": [],
      "name": "FeeTokenAddress",
      "outputs": [
        {
          "internalType": "address",
          "name": "",
          "type": "address"
        }
      ],
      "stateMutability": "view",
      "type": "function"
    },
    {
      "inputs": [],
      "name": "NumSessions",
      "outputs": [
        {
          "internalType": "uint256",
          "name": "",
          "type": "uint256"
        }
      ],
      "stateMutability": "view",
      "type": "function"
    },
    {
      "inputs": [],
      "name": "NumStats",
      "outputs": [
        {
          "internalType": "uint256",
          "name": "",
          "type": "uint256"
        }
      ],
      "stateMutability": "view",
      "type": "function"
    },
    {
      "inputs": [],
      "name": "SessionJoinPrice",
      "outputs": [
        {
          "internalType": "uint256",
          "name": "",
          "type": "uint256"
        }
      ],
      "stateMutability": "view",
      "type": "function"
    },
    {
      "inputs": [],
      "name": "SessionStartPrice",
      "outputs": [
        {
          "internalType": "uint256",
          "name": "",
          "type": "uint256"
        }
      ],
      "stateMutability": "view",
      "type": "function"
    },
    {
      "inputs": [
        {
          "internalType": "uint256",
          "name": "",
          "type": "uint256"
        }
      ],
      "name": "SessionState",
      "outputs": [
        {
          "internalType": "uint256",
          "name": "startBlock",
          "type": "uint256"
        },
        {
          "internalType": "uint256",
          "name": "commitmentsBlock",
          "type": "uint256"
        },
        {
          "internalType": "address",
          "name": "pitcherAddress",
          "type": "address"
        },
        {
          "internalType": "uint256",
          "name": "pitcherTokenID",
          "type": "uint256"
        },
        {
          "internalType": "bool",
          "name": "didPitcherCommit",
          "type": "bool"
        },
        {
          "internalType": "bool",
          "name": "didPitcherReveal",
          "type": "bool"
        },
        {
          "internalType": "bytes",
          "name": "pitcherCommit",
          "type": "bytes"
        },
        {
          "components": [
            {
              "internalType": "uint256",
              "name": "nonce",
              "type": "uint256"
            },
            {
              "internalType": "enum PitchType",
              "name": "kind",
              "type": "uint8"
            },
            {
              "internalType": "enum VerticalLocation",
              "name": "vertical",
              "type": "uint8"
            },
            {
              "internalType": "enum HorizontalLocation",
              "name": "horizontal",
              "type": "uint8"
            }
          ],
          "internalType": "struct Pitch",
          "name": "pitcherReveal",
          "type": "tuple"
        },
        {
          "internalType": "address",
          "name": "batterAddress",
          "type": "address"
        },
        {
          "internalType": "uint256",
          "name": "batterTokenID",
          "type": "uint256"
        },
        {
          "internalType": "bool",
          "name": "didBatterCommit",
          "type": "bool"
        },
        {
          "internalType": "bool",
          "name": "didBatterReveal",
          "type": "bool"
        },
        {
          "internalType": "bytes",
          "name": "batterCommit",
          "type": "bytes"
        },
        {
          "components": [
            {
              "internalType": "uint256",
              "name": "nonce",
              "type": "uint256"
            },
            {
              "internalType": "enum SwingType",
              "name": "kind",
              "type": "uint8"
            },
            {
              "internalType": "enum VerticalLocation",
              "name": "vertical",
              "type": "uint8"
            },
            {
              "internalType": "enum HorizontalLocation",
              "name": "horizontal",
              "type": "uint8"
            }
          ],
          "internalType": "struct Swing",
          "name": "batterReveal",
          "type": "tuple"
        }
      ],
      "stateMutability": "view",
      "type": "function"
    },
    {
      "inputs": [
        {
          "internalType": "address",
          "name": "",
          "type": "address"
        },
        {
          "internalType": "uint256",
          "name": "",
          "type": "uint256"
        }
      ],
      "name": "StakedSession",
      "outputs": [
        {
          "internalType": "uint256",
          "name": "",
          "type": "uint256"
        }
      ],
      "stateMutability": "view",
      "type": "function"
    },
    {
      "inputs": [
        {
          "internalType": "address",
          "name": "",
          "type": "address"
        },
        {
          "internalType": "uint256",
          "name": "",
          "type": "uint256"
        }
      ],
      "name": "Staker",
      "outputs": [
        {
          "internalType": "address",
          "name": "",
          "type": "address"
        }
      ],
      "stateMutability": "view",
      "type": "function"
    },
    {
      "inputs": [],
      "name": "TreasuryAddress",
      "outputs": [
        {
          "internalType": "address",
          "name": "",
          "type": "address"
        }
      ],
      "stateMutability": "view",
      "type": "function"
    },
    {
      "inputs": [
        {
          "internalType": "address",
          "name": "tokenAddress",
          "type": "address"
        },
        {
          "internalType": "uint256",
          "name": "tokenID",
          "type": "uint256"
        },
        {
          "internalType": "uint256[]",
          "name": "statIDs",
          "type": "uint256[]"
        },
        {
          "internalType": "uint256[]",
          "name": "values",
          "type": "uint256[]"
        }
      ],
      "name": "assignStats",
      "outputs": [],
      "stateMutability": "nonpayable",
      "type": "function"
    },
    {
      "inputs": [
        {
          "internalType": "address[]",
          "name": "tokenAddresses",
          "type": "address[]"
        },
        {
          "internalType": "uint256[]",
          "name": "tokenIDs",
          "type": "uint256[]"
        },
        {
          "internalType": "uint256[][]",
          "name": "statIDs",
          "type": "uint256[][]"
        },
        {
          "internalType": "uint256[][]",
          "name": "values",
          "type": "uint256[][]"
        }
      ],
      "name": "batchAssignStats",
      "outputs": [],
      "stateMutability": "nonpayable",
      "type": "function"
    },
    {
      "inputs": [
        {
          "internalType": "address[]",
          "name": "tokenAddresses",
          "type": "address[]"
        },
        {
          "internalType": "uint256[]",
          "name": "tokenIDs",
          "type": "uint256[]"
        },
        {
          "internalType": "uint256[]",
          "name": "statIDs",
          "type": "uint256[]"
        }
      ],
      "name": "batchGetStats",
      "outputs": [
        {
          "internalType": "uint256[][]",
          "name": "",
          "type": "uint256[][]"
        }
      ],
      "stateMutability": "view",
      "type": "function"
    },
    {
      "inputs": [
        {
          "internalType": "string",
          "name": "descriptor",
          "type": "string"
        }
      ],
      "name": "createStat",
      "outputs": [
        {
          "internalType": "uint256",
          "name": "statID",
          "type": "uint256"
        }
      ],
      "stateMutability": "nonpayable",
      "type": "function"
    },
    {
      "inputs": [
        {
          "internalType": "uint256",
          "name": "statID",
          "type": "uint256"
        }
      ],
      "name": "describeStat",
      "outputs": [
        {
          "internalType": "string",
          "name": "",
          "type": "string"
        }
      ],
      "stateMutability": "view",
      "type": "function"
    },
    {
      "inputs": [
        {
          "internalType": "address",
          "name": "tokenAddress",
          "type": "address"
        },
        {
          "internalType": "uint256",
          "name": "tokenID",
          "type": "uint256"
        },
        {
          "internalType": "uint256[]",
          "name": "statIDs",
          "type": "uint256[]"
        }
      ],
      "name": "getStats",
      "outputs": [
        {
          "internalType": "uint256[]",
          "name": "",
          "type": "uint256[]"
        }
      ],
      "stateMutability": "view",
      "type": "function"
    },
    {
      "inputs": [
        {
          "internalType": "address",
          "name": "account",
          "type": "address"
        }
      ],
      "name": "isAdministrator",
      "outputs": [
        {
          "internalType": "bool",
          "name": "",
          "type": "bool"
        }
      ],
      "stateMutability": "view",
      "type": "function"
    },
    {
      "inputs": [
        {
          "internalType": "uint256",
          "name": "sessionID",
          "type": "uint256"
        },
        {
          "internalType": "address",
          "name": "nftAddress",
          "type": "address"
        },
        {
          "internalType": "uint256",
          "name": "tokenID",
          "type": "uint256"
        }
      ],
      "name": "joinSession",
      "outputs": [],
      "stateMutability": "nonpayable",
      "type": "function"
    },
    {
      "inputs": [
        {
          "internalType": "uint256",
          "name": "statID",
          "type": "uint256"
        },
        {
          "internalType": "string",
          "name": "descriptor",
          "type": "string"
        }
      ],
      "name": "setStatDescriptor",
      "outputs": [],
      "stateMutability": "nonpayable",
      "type": "function"
    },
    {
      "inputs": [
        {
          "internalType": "address",
          "name": "nftAddress",
          "type": "address"
        },
        {
          "internalType": "uint256",
          "name": "tokenID",
          "type": "uint256"
        },
        {
          "internalType": "enum PlayerType",
          "name": "role",
          "type": "uint8"
        }
      ],
      "name": "startSession",
      "outputs": [
        {
          "internalType": "uint256",
          "name": "",
          "type": "uint256"
        }
      ],
      "stateMutability": "nonpayable",
      "type": "function"
    },
    {
      "inputs": [],
      "name": "statBlockVersion",
      "outputs": [
        {
          "internalType": "string",
          "name": "",
          "type": "string"
        }
      ],
      "stateMutability": "view",
      "type": "function"
    }
  ],
  "bytecode": {
    "object": "0x60c06040526005608090815264302e302e3160d81b60a0526000906200002690826200013f565b503480156200003457600080fd5b506040516200262b3803806200262b833981016040819052620000579162000228565b600480546001600160a01b03199081166001600160a01b03978816179091556005949094556006929092556007805490931693169290921790556008556200027d565b634e487b7160e01b600052604160045260246000fd5b600181811c90821680620000c557607f821691505b602082108103620000e657634e487b7160e01b600052602260045260246000fd5b50919050565b601f8211156200013a57600081815260208120601f850160051c81016020861015620001155750805b601f850160051c820191505b81811015620001365782815560010162000121565b5050505b505050565b81516001600160401b038111156200015b576200015b6200009a565b62000173816200016c8454620000b0565b84620000ec565b602080601f831160018114620001ab5760008415620001925750858301515b600019600386901b1c1916600185901b17855562000136565b600085815260208120601f198616915b82811015620001dc57888601518255948401946001909101908401620001bb565b5085821015620001fb5787850151600019600388901b60f8161c191681555b5050505050600190811b01905550565b80516001600160a01b03811681146200022357600080fd5b919050565b600080600080600060a086880312156200024157600080fd5b6200024c866200020b565b945060208601519350604086015192506200026a606087016200020b565b9150608086015190509295509295909350565b61239e806200028d6000396000f3fe608060405234801561001057600080fd5b50600436106101365760003560e01c80635d1c9723116100b8578063cfad39b11161007c578063cfad39b1146102e3578063d49b537f146102f8578063d7d9e6011461030b578063eccbc5e214610314578063f1fb61e014610327578063f799b0301461033a57600080fd5b80635d1c9723146102565780638e171f7414610269578063a1ca6a1414610289578063a9ac652c146102bd578063b29e8256146102d057600080fd5b8063241537ef116100ff578063241537ef146101aa57806333603f6a146101d55780633728f0c1146101f55780633793d693146102225780635b5c251f1461022b57600080fd5b806204aaad1461013b5780630a2eb30114610157578063105b039c146101835780631911227d146101985780631b720f9a146101a1575b600080fd5b61014460095481565b6040519081526020015b60405180910390f35b610173610165366004611997565b6001600160a01b0316301490565b604051901515815260200161014e565b61018b61034d565b60405161014e9190611a04565b61014460065481565b61014460015481565b6101446101b8366004611a17565b600c60209081526000928352604080842090915290825290205481565b6101e86101e3366004611b7b565b6103db565b60405161014e9190611c02565b610208610203366004611c8c565b610543565b60405161014e9e9d9c9b9a99989796959493929190611d15565b61014460055481565b60075461023e906001600160a01b031681565b6040516001600160a01b03909116815260200161014e565b610144610264366004611e3f565b610852565b61027c610277366004611e7b565b61097c565b60405161014e9190611ec9565b61023e610297366004611a17565b600b6020908152600092835260408084209091529082529020546001600160a01b031681565b61018b6102cb366004611c8c565b610a51565b60045461023e906001600160a01b031681565b6102f66102f1366004611f0d565b610af3565b005b610144610306366004611f53565b610bd7565b61014460085481565b6102f6610322366004611f99565b610eaa565b6102f6610335366004611fd1565b6112c6565b6102f66103483660046120cf565b6114ea565b6000805461035a9061216f565b80601f01602080910402602001604051908101604052809291908181526020018280546103869061216f565b80156103d35780601f106103a8576101008083540402835291602001916103d3565b820191906000526020600020905b8154815290600101906020018083116103b657829003601f168201915b505050505081565b6060825184511461046e5760405162461bcd60e51b815260206004820152604c60248201527f53746174426c6f636b2e626174636847657453746174733a20746f6b656e416460448201527f6472657373657320616e6420746f6b656e494473206d7573742062652074686560648201526b040e6c2daca40d8cadccee8d60a31b608482015260a4015b60405180910390fd5b600084516001600160401b0381111561048957610489611a43565b6040519080825280602002602001820160405280156104bc57816020015b60608152602001906001900390816104a75790505b50905060005b8551811015610538576105088682815181106104e0576104e06121a9565b60200260200101518683815181106104fa576104fa6121a9565b60200260200101518661097c565b82828151811061051a5761051a6121a9565b60200260200101819052508080610530906121bf565b9150506104c2565b5090505b9392505050565b600a60205260009081526040902080546001820154600283015460038401546004850154600586018054959694956001600160a01b0390941694929360ff80841694610100909404169291906105989061216f565b80601f01602080910402602001604051908101604052809291908181526020018280546105c49061216f565b80156106115780601f106105e657610100808354040283529160200191610611565b820191906000526020600020905b8154815290600101906020018083116105f457829003601f168201915b5050604080516080810190915260068601805482526007870154959695919450925060208401915060ff16600381111561064d5761064d611ca5565b600381111561065e5761065e611ca5565b81526020016001820160019054906101000a900460ff16600481111561068657610686611ca5565b600481111561069757610697611ca5565b81526020016001820160029054906101000a900460ff1660048111156106bf576106bf611ca5565b60048111156106d0576106d0611ca5565b90525060088201546009830154600a840154600b8501805494956001600160a01b0390941694929360ff8084169461010090940416929091906107129061216f565b80601f016020809104026020016040519081016040528092919081815260200182805461073e9061216f565b801561078b5780601f106107605761010080835404028352916020019161078b565b820191906000526020600020905b81548152906001019060200180831161076e57829003601f168201915b50506040805160808101909152600c860180548252600d870154959695919450925060208401915060ff1660038111156107c7576107c7611ca5565b60038111156107d8576107d8611ca5565b81526020016001820160019054906101000a900460ff16600481111561080057610800611ca5565b600481111561081157610811611ca5565b81526020016001820160029054906101000a900460ff16600481111561083957610839611ca5565b600481111561084a5761084a611ca5565b90525090508e565b60003033146108dc5760405162461bcd60e51b815260206004820152604a60248201527f53746174426c6f636b2e637265617465537461743a206d73672e73656e64657260448201527f206d75737420626520616e2061646d696e6973747261746f72206f66207468656064820152692053746174426c6f636b60b01b608482015260a401610465565b6001600081546108eb906121bf565b9182905550600081815260026020526040902090915061090b8382612234565b506040518181527ff3ce573c45b8324851954086f08ec04e99547734a450e4f5f885be29e72a8af89060200160405180910390a1807f0dd15a6119f41ee2fe5e35cf9a28a004ce1064b98c9b37e3f9fcb6386f078c698360405161096f9190611a04565b60405180910390a2919050565b6060600082516001600160401b0381111561099957610999611a43565b6040519080825280602002602001820160405280156109c2578160200160208202803683370190505b50905060005b8351811015610538576001600160a01b038616600090815260036020908152604080832088845290915281208551909190869084908110610a0b57610a0b6121a9565b6020026020010151815260200190815260200160002054828281518110610a3457610a346121a9565b602090810291909101015280610a49816121bf565b9150506109c8565b6000818152600260205260409020805460609190610a6e9061216f565b80601f0160208091040260200160405190810160405280929190818152602001828054610a9a9061216f565b8015610ae75780601f10610abc57610100808354040283529160200191610ae7565b820191906000526020600020905b815481529060010190602001808311610aca57829003601f168201915b50505050509050919050565b303314610b825760405162461bcd60e51b815260206004820152605160248201527f53746174426c6f636b2e7365745374617444657363726970746f723a206d736760448201527f2e73656e646572206d75737420626520616e2061646d696e6973747261746f72606482015270206f66207468652053746174426c6f636b60781b608482015260a401610465565b6000828152600260205260409020610b9a8282612234565b50817f0dd15a6119f41ee2fe5e35cf9a28a004ce1064b98c9b37e3f9fcb6386f078c6982604051610bcb9190611a04565b60405180910390a25050565b600480546040516331a9108f60e11b81529182018490526000916001600160a01b039182169186918491831690636352211e90602401602060405180830381865afa158015610c2a573d6000803e3d6000fd5b505050506040513d601f19601f82011682018060405250810190610c4e91906122f3565b9050336001600160a01b03821614610cce5760405162461bcd60e51b815260206004820152603b60248201527f4c696768746e696e67416e64536d6f6b652e737461727453657373696f6e3a2060448201527f6d73672e73656e646572206973206e6f74204e4654206f776e657200000000006064820152608401610465565b600754600554610cf0916001600160a01b0386811692339291909116906117b0565b60098054906000610d00836121bf565b9091555060009050856001811115610d1a57610d1a611ca5565b03610d5e57600980546000908152600a602052604080822060020180546001600160a01b0319166001600160a01b038c161790559154815220600301869055610d98565b600980546000908152600a602052604080822060080180546001600160a01b0319166001600160a01b038c16179055825482529020018690555b6001600160a01b038781166000818152600b602090815260408083208b8452825280832080546001600160a01b031916878716908117909155600954948452600c83528184208c85528352818420859055938352600a90915290819020439055516323b872dd60e01b8152600481019190915230602482015260448101889052908316906323b872dd90606401600060405180830381600087803b158015610e3f57600080fd5b505af1158015610e53573d6000803e3d6000fd5b5050505085876001600160a01b03166009547fbe87d3ef7a611e190e113702d514c225d954a63199570d6ba62c292d1bbaecfa88604051610e949190612310565b60405180910390a4505060095495945050505050565b600954831115610f1a5760405162461bcd60e51b815260206004820152603560248201527f4c696768746e696e67416e64536d6f6b652e6a6f696e53657373696f6e3a2073604482015274195cdcda5bdb88191bd95cc81b9bdd08195e1a5cdd605a1b6064820152608401610465565b600480546040516331a9108f60e11b81529182018390526001600160a01b0390811691849160009190831690636352211e90602401602060405180830381865afa158015610f6c573d6000803e3d6000fd5b505050506040513d601f19601f82011682018060405250810190610f9091906122f3565b9050336001600160a01b038216146110105760405162461bcd60e51b815260206004820152603a60248201527f4c696768746e696e67416e64536d6f6b652e6a6f696e53657373696f6e3a206d60448201527f73672e73656e646572206973206e6f74204e4654206f776e65720000000000006064820152608401610465565b600754600654611032916001600160a01b0386811692339291909116906117b0565b6000868152600a6020526040902060028101546001600160a01b031615801590611068575060088101546001600160a01b031615155b156110d45760405162461bcd60e51b815260206004820152603660248201527f4c696768746e696e67416e64536d6f6b652e6a6f696e53657373696f6e3a2073604482015275195cdcda5bdb881a5cc8185b1c9958591e48199d5b1b60521b6064820152608401610465565b60028101546001600160a01b03161580156110fa575060088101546001600160a01b0316155b156111645760405162461bcd60e51b815260206004820152603460248201527f4c696768746e696e67416e64536d6f6b652e6a6f696e53657373696f6e3a206f604482015273383837b732b73a103632b33a1039b2b9b9b4b7b760611b6064820152608401610465565b60088101546000906001600160a01b03166111a557506008810180546001600160a01b0319166001600160a01b0388161790556009810185905560016111ca565b6002820180546001600160a01b0319166001600160a01b038916179055600382018690555b6001600160a01b038781166000818152600b602090815260408083208b8452825280832080546001600160a01b031916898716908117909155938352600c82528083208b8452909152908190208b9055516323b872dd60e01b8152600481019190915230602482015260448101889052908516906323b872dd90606401600060405180830381600087803b15801561126157600080fd5b505af1158015611275573d6000803e3d6000fd5b5050505085876001600160a01b0316897f5b73123e6590975d8ac759b1f01ae33ba034238e061d8dd62ffd0fde08991693846040516112b49190612310565b60405180910390a45050505050505050565b30331461134f5760405162461bcd60e51b815260206004820152604b60248201527f53746174426c6f636b2e61737369676e53746174733a206d73672e73656e646560448201527f72206d75737420626520616e2061646d696e6973747261746f72206f6620746860648201526a652053746174426c6f636b60a81b608482015260a401610465565b80518251146113d05760405162461bcd60e51b815260206004820152604160248201527f53746174426c6f636b2e61737369676e53746174733a2073746174494473206160448201527f6e642076616c756573206d757374206265207468652073616d65206c656e67746064820152600d60fb1b608482015260a401610465565b60005b82518110156114e3578181815181106113ee576113ee6121a9565b602002602001015160036000876001600160a01b03166001600160a01b0316815260200190815260200160002060008681526020019081526020016000206000858481518110611440576114406121a9565b602002602001015181526020019081526020016000208190555082818151811061146c5761146c6121a9565b602002602001015184866001600160a01b03167fe9b793c30dcdfe88c097c6514559ea9906629911c611bfef29cea40525bf3c4a8585815181106114b2576114b26121a9565b60200260200101516040516114c991815260200190565b60405180910390a4806114db816121bf565b9150506113d3565b5050505050565b3033146115785760405162461bcd60e51b815260206004820152605060248201527f53746174426c6f636b2e626174636841737369676e53746174733a206d73672e60448201527f73656e646572206d75737420626520616e2061646d696e6973747261746f722060648201526f6f66207468652053746174426c6f636b60801b608482015260a401610465565b82518451146116075760405162461bcd60e51b815260206004820152604f60248201527f53746174426c6f636b2e626174636841737369676e53746174733a20746f6b6560448201527f6e41646472657373657320616e6420746f6b656e494473206d7573742062652060648201526e0e8d0ca40e6c2daca40d8cadccee8d608b1b608482015260a401610465565b81518451146116955760405162461bcd60e51b815260206004820152604e60248201527f53746174426c6f636b2e626174636841737369676e53746174733a20746f6b6560448201527f6e41646472657373657320616e642073746174494473206d757374206265207460648201526d0d0ca40e6c2daca40d8cadccee8d60931b608482015260a401610465565b80518451146117225760405162461bcd60e51b815260206004820152604d60248201527f53746174426c6f636b2e626174636841737369676e53746174733a20746f6b6560448201527f6e41646472657373657320616e642076616c756573206d75737420626520746860648201526c0ca40e6c2daca40d8cadccee8d609b1b608482015260a401610465565b60005b84518110156114e35761179e858281518110611743576117436121a9565b602002602001015185838151811061175d5761175d6121a9565b6020026020010151858481518110611777576117776121a9565b6020026020010151858581518110611791576117916121a9565b60200260200101516112c6565b806117a8816121bf565b915050611725565b604080516001600160a01b0385811660248301528416604482015260648082018490528251808303909101815260849091019091526020810180516001600160e01b03166323b872dd60e01b17905261180a908590611810565b50505050565b60006118256001600160a01b03841683611878565b9050805160001415801561184a575080806020019051810190611848919061232a565b155b1561187357604051635274afe760e01b81526001600160a01b0384166004820152602401610465565b505050565b606061053c8383600084600080856001600160a01b0316848660405161189e919061234c565b60006040518083038185875af1925050503d80600081146118db576040519150601f19603f3d011682016040523d82523d6000602084013e6118e0565b606091505b50915091506118f08683836118fa565b9695505050505050565b60608261190f5761190a82611956565b61053c565b815115801561192657506001600160a01b0384163b155b1561194f57604051639996b31560e01b81526001600160a01b0385166004820152602401610465565b508061053c565b8051156119665780518082602001fd5b604051630a12f52160e11b815260040160405180910390fd5b50565b6001600160a01b038116811461197f57600080fd5b6000602082840312156119a957600080fd5b813561053c81611982565b60005b838110156119cf5781810151838201526020016119b7565b50506000910152565b600081518084526119f08160208601602086016119b4565b601f01601f19169290920160200192915050565b60208152600061053c60208301846119d8565b60008060408385031215611a2a57600080fd5b8235611a3581611982565b946020939093013593505050565b634e487b7160e01b600052604160045260246000fd5b604051601f8201601f191681016001600160401b0381118282101715611a8157611a81611a43565b604052919050565b60006001600160401b03821115611aa257611aa2611a43565b5060051b60200190565b600082601f830112611abd57600080fd5b81356020611ad2611acd83611a89565b611a59565b82815260059290921b84018101918181019086841115611af157600080fd5b8286015b84811015611b15578035611b0881611982565b8352918301918301611af5565b509695505050505050565b600082601f830112611b3157600080fd5b81356020611b41611acd83611a89565b82815260059290921b84018101918181019086841115611b6057600080fd5b8286015b84811015611b155780358352918301918301611b64565b600080600060608486031215611b9057600080fd5b83356001600160401b0380821115611ba757600080fd5b611bb387838801611aac565b94506020860135915080821115611bc957600080fd5b611bd587838801611b20565b93506040860135915080821115611beb57600080fd5b50611bf886828701611b20565b9150509250925092565b6000602080830181845280855180835260408601915060408160051b87010192508387016000805b83811015611c7e57888603603f19018552825180518088529088019088880190845b81811015611c685783518352928a0192918a0191600101611c4c565b5090975050509386019391860191600101611c2a565b509398975050505050505050565b600060208284031215611c9e57600080fd5b5035919050565b634e487b7160e01b600052602160045260246000fd5b6005811061197f5761197f611ca5565b80518252602081015160048110611ce457611ce4611ca5565b60208301526040810151611cf781611cbb565b60408301526060810151611d0a81611cbb565b806060840152505050565b8e8152602081018e90526001600160a01b038d166040820152606081018c90528a1515608082015289151560a082015261028060c08201526000611d5d61028083018b6119d8565b611d6a60e084018b611ccb565b6001600160a01b03891661016084015287610180840152611d906101a084018815159052565b8515156101c08401528281036101e0840152611dac81866119d8565b915050611dbd610200830184611ccb565b9f9e505050505050505050505050505050565b600082601f830112611de157600080fd5b81356001600160401b03811115611dfa57611dfa611a43565b611e0d601f8201601f1916602001611a59565b818152846020838601011115611e2257600080fd5b816020850160208301376000918101602001919091529392505050565b600060208284031215611e5157600080fd5b81356001600160401b03811115611e6757600080fd5b611e7384828501611dd0565b949350505050565b600080600060608486031215611e9057600080fd5b8335611e9b81611982565b92506020840135915060408401356001600160401b03811115611ebd57600080fd5b611bf886828701611b20565b6020808252825182820181905260009190848201906040850190845b81811015611f0157835183529284019291840191600101611ee5565b50909695505050505050565b60008060408385031215611f2057600080fd5b8235915060208301356001600160401b03811115611f3d57600080fd5b611f4985828601611dd0565b9150509250929050565b600080600060608486031215611f6857600080fd5b8335611f7381611982565b925060208401359150604084013560028110611f8e57600080fd5b809150509250925092565b600080600060608486031215611fae57600080fd5b833592506020840135611fc081611982565b929592945050506040919091013590565b60008060008060808587031215611fe757600080fd5b8435611ff281611982565b93506020850135925060408501356001600160401b038082111561201557600080fd5b61202188838901611b20565b9350606087013591508082111561203757600080fd5b5061204487828801611b20565b91505092959194509250565b600082601f83011261206157600080fd5b81356020612071611acd83611a89565b82815260059290921b8401810191818101908684111561209057600080fd5b8286015b84811015611b155780356001600160401b038111156120b35760008081fd5b6120c18986838b0101611b20565b845250918301918301612094565b600080600080608085870312156120e557600080fd5b84356001600160401b03808211156120fc57600080fd5b61210888838901611aac565b9550602087013591508082111561211e57600080fd5b61212a88838901611b20565b9450604087013591508082111561214057600080fd5b61214c88838901612050565b9350606087013591508082111561216257600080fd5b5061204487828801612050565b600181811c9082168061218357607f821691505b6020821081036121a357634e487b7160e01b600052602260045260246000fd5b50919050565b634e487b7160e01b600052603260045260246000fd5b6000600182016121df57634e487b7160e01b600052601160045260246000fd5b5060010190565b601f82111561187357600081815260208120601f850160051c8101602086101561220d5750805b601f850160051c820191505b8181101561222c57828155600101612219565b505050505050565b81516001600160401b0381111561224d5761224d611a43565b6122618161225b845461216f565b846121e6565b602080601f831160018114612296576000841561227e5750858301515b600019600386901b1c1916600185901b17855561222c565b600085815260208120601f198616915b828110156122c5578886015182559484019460019091019084016122a6565b50858210156122e35787850151600019600388901b60f8161c191681555b5050505050600190811b01905550565b60006020828403121561230557600080fd5b815161053c81611982565b602081016002831061232457612324611ca5565b91905290565b60006020828403121561233c57600080fd5b8151801515811461053c57600080fd5b6000825161235e8184602087016119b4565b919091019291505056fea26469706673582212200f20bb0477fd4a2567c4f76778800e8f4d456a2d76304c713bb091272c51b16264736f6c63430008140033",
    "linkReferences": {}
  },
  "methodIdentifiers": {
    "BlocksPerPhase()": "d7d9e601",
    "FeeTokenAddress()": "b29e8256",
    "NumSessions()": "0004aaad",
    "NumStats()": "1b720f9a",
    "SessionJoinPrice()": "1911227d",
    "SessionStartPrice()": "3793d693",
    "SessionState(uint256)": "3728f0c1",
    "StakedSession(address,uint256)": "241537ef",
    "Staker(address,uint256)": "a1ca6a14",
    "TreasuryAddress()": "5b5c251f",
    "assignStats(address,uint256,uint256[],uint256[])": "f1fb61e0",
    "batchAssignStats(address[],uint256[],uint256[][],uint256[][])": "f799b030",
    "batchGetStats(address[],uint256[],uint256[])": "33603f6a",
    "createStat(string)": "5d1c9723",
    "describeStat(uint256)": "a9ac652c",
    "getStats(address,uint256,uint256[])": "8e171f74",
    "isAdministrator(address)": "0a2eb301",
    "joinSession(uint256,address,uint256)": "eccbc5e2",
    "setStatDescriptor(uint256,string)": "cfad39b1",
    "startSession(address,uint256,uint8)": "d49b537f",
    "statBlockVersion()": "105b039c"
  },
  "id": 38
}