{
  "abi": [
    {
      "inputs": [
        {
          "internalType": "address",
          "name": "feeTokenAddress",
          "type": "address"
        },
        {
          "internalType": "uint256",
          "name": "sessionStartPrice",
          "type": "uint256"
        },
        {
          "internalType": "uint256",
          "name": "sessionJoinPrice",
          "type": "uint256"
        },
        {
          "internalType": "address",
          "name": "treasuryAddress",
          "type": "address"
        }
      ],
      "stateMutability": "nonpayable",
      "type": "constructor"
    },
    {
      "anonymous": false,
      "inputs": [
        {
          "indexed": false,
          "internalType": "uint256",
          "name": "sessionID",
          "type": "uint256"
        },
        {
          "indexed": true,
          "internalType": "address",
          "name": "nftAddress",
          "type": "address"
        },
        {
          "indexed": true,
          "internalType": "uint256",
          "name": "tokenID",
          "type": "uint256"
        },
        {
          "indexed": true,
          "internalType": "enum PlayerType",
          "name": "role",
          "type": "uint8"
        }
      ],
      "name": "SessionStarted",
      "type": "event"
    },
    {
      "anonymous": false,
      "inputs": [
        {
          "indexed": true,
          "internalType": "address",
          "name": "tokenAddress",
          "type": "address"
        },
        {
          "indexed": true,
          "internalType": "uint256",
          "name": "tokenID",
          "type": "uint256"
        },
        {
          "indexed": true,
          "internalType": "uint256",
          "name": "statID",
          "type": "uint256"
        },
        {
          "indexed": false,
          "internalType": "uint256",
          "name": "value",
          "type": "uint256"
        }
      ],
      "name": "StatAssigned",
      "type": "event"
    },
    {
      "anonymous": false,
      "inputs": [
        {
          "indexed": false,
          "internalType": "uint256",
          "name": "statID",
          "type": "uint256"
        }
      ],
      "name": "StatCreated",
      "type": "event"
    },
    {
      "anonymous": false,
      "inputs": [
        {
          "indexed": true,
          "internalType": "uint256",
          "name": "statID",
          "type": "uint256"
        },
        {
          "indexed": false,
          "internalType": "string",
          "name": "descriptor",
          "type": "string"
        }
      ],
      "name": "StatDescriptorUpdated",
      "type": "event"
    },
    {
      "inputs": [],
      "name": "FeeTokenAddress",
      "outputs": [
        {
          "internalType": "address",
          "name": "",
          "type": "address"
        }
      ],
      "stateMutability": "view",
      "type": "function"
    },
    {
      "inputs": [],
      "name": "NumSessions",
      "outputs": [
        {
          "internalType": "uint256",
          "name": "",
          "type": "uint256"
        }
      ],
      "stateMutability": "view",
      "type": "function"
    },
    {
      "inputs": [],
      "name": "NumStats",
      "outputs": [
        {
          "internalType": "uint256",
          "name": "",
          "type": "uint256"
        }
      ],
      "stateMutability": "view",
      "type": "function"
    },
    {
      "inputs": [],
      "name": "SessionJoinPrice",
      "outputs": [
        {
          "internalType": "uint256",
          "name": "",
          "type": "uint256"
        }
      ],
      "stateMutability": "view",
      "type": "function"
    },
    {
      "inputs": [],
      "name": "SessionStartPrice",
      "outputs": [
        {
          "internalType": "uint256",
          "name": "",
          "type": "uint256"
        }
      ],
      "stateMutability": "view",
      "type": "function"
    },
    {
      "inputs": [
        {
          "internalType": "uint256",
          "name": "",
          "type": "uint256"
        }
      ],
      "name": "SessionState",
      "outputs": [
        {
          "internalType": "uint256",
          "name": "startBlock",
          "type": "uint256"
        },
        {
          "internalType": "uint256",
          "name": "commitmentsBlock",
          "type": "uint256"
        },
        {
          "internalType": "address",
          "name": "pitcherAddress",
          "type": "address"
        },
        {
          "internalType": "uint256",
          "name": "pitcherTokenID",
          "type": "uint256"
        },
        {
          "internalType": "bool",
          "name": "didPitcherCommit",
          "type": "bool"
        },
        {
          "internalType": "bool",
          "name": "didPitcherReveal",
          "type": "bool"
        },
        {
          "internalType": "bytes",
          "name": "pitcherCommit",
          "type": "bytes"
        },
        {
          "components": [
            {
              "internalType": "uint256",
              "name": "nonce",
              "type": "uint256"
            },
            {
              "internalType": "enum PitchType",
              "name": "kind",
              "type": "uint8"
            },
            {
              "internalType": "enum VerticalLocation",
              "name": "vertical",
              "type": "uint8"
            },
            {
              "internalType": "enum HorizontalLocation",
              "name": "horizontal",
              "type": "uint8"
            }
          ],
          "internalType": "struct Pitch",
          "name": "pitcherReveal",
          "type": "tuple"
        },
        {
          "internalType": "address",
          "name": "batterAddress",
          "type": "address"
        },
        {
          "internalType": "uint256",
          "name": "batterTokenID",
          "type": "uint256"
        },
        {
          "internalType": "bool",
          "name": "didBatterCommit",
          "type": "bool"
        },
        {
          "internalType": "bool",
          "name": "didBatterReveal",
          "type": "bool"
        },
        {
          "internalType": "bytes",
          "name": "batterCommit",
          "type": "bytes"
        },
        {
          "components": [
            {
              "internalType": "uint256",
              "name": "nonce",
              "type": "uint256"
            },
            {
              "internalType": "enum SwingType",
              "name": "kind",
              "type": "uint8"
            },
            {
              "internalType": "enum VerticalLocation",
              "name": "vertical",
              "type": "uint8"
            },
            {
              "internalType": "enum HorizontalLocation",
              "name": "horizontal",
              "type": "uint8"
            }
          ],
          "internalType": "struct Swing",
          "name": "batterReveal",
          "type": "tuple"
        }
      ],
      "stateMutability": "view",
      "type": "function"
    },
    {
      "inputs": [
        {
          "internalType": "address",
          "name": "",
          "type": "address"
        },
        {
          "internalType": "uint256",
          "name": "",
          "type": "uint256"
        }
      ],
      "name": "StakedSession",
      "outputs": [
        {
          "internalType": "uint256",
          "name": "",
          "type": "uint256"
        }
      ],
      "stateMutability": "view",
      "type": "function"
    },
    {
      "inputs": [
        {
          "internalType": "address",
          "name": "",
          "type": "address"
        },
        {
          "internalType": "uint256",
          "name": "",
          "type": "uint256"
        }
      ],
      "name": "Staker",
      "outputs": [
        {
          "internalType": "address",
          "name": "",
          "type": "address"
        }
      ],
      "stateMutability": "view",
      "type": "function"
    },
    {
      "inputs": [],
      "name": "TreasuryAddress",
      "outputs": [
        {
          "internalType": "address",
          "name": "",
          "type": "address"
        }
      ],
      "stateMutability": "view",
      "type": "function"
    },
    {
      "inputs": [
        {
          "internalType": "address",
          "name": "tokenAddress",
          "type": "address"
        },
        {
          "internalType": "uint256",
          "name": "tokenID",
          "type": "uint256"
        },
        {
          "internalType": "uint256[]",
          "name": "statIDs",
          "type": "uint256[]"
        },
        {
          "internalType": "uint256[]",
          "name": "values",
          "type": "uint256[]"
        }
      ],
      "name": "assignStats",
      "outputs": [],
      "stateMutability": "nonpayable",
      "type": "function"
    },
    {
      "inputs": [
        {
          "internalType": "address[]",
          "name": "tokenAddresses",
          "type": "address[]"
        },
        {
          "internalType": "uint256[]",
          "name": "tokenIDs",
          "type": "uint256[]"
        },
        {
          "internalType": "uint256[][]",
          "name": "statIDs",
          "type": "uint256[][]"
        },
        {
          "internalType": "uint256[][]",
          "name": "values",
          "type": "uint256[][]"
        }
      ],
      "name": "batchAssignStats",
      "outputs": [],
      "stateMutability": "nonpayable",
      "type": "function"
    },
    {
      "inputs": [
        {
          "internalType": "address[]",
          "name": "tokenAddresses",
          "type": "address[]"
        },
        {
          "internalType": "uint256[]",
          "name": "tokenIDs",
          "type": "uint256[]"
        },
        {
          "internalType": "uint256[]",
          "name": "statIDs",
          "type": "uint256[]"
        }
      ],
      "name": "batchGetStats",
      "outputs": [
        {
          "internalType": "uint256[][]",
          "name": "",
          "type": "uint256[][]"
        }
      ],
      "stateMutability": "view",
      "type": "function"
    },
    {
      "inputs": [
        {
          "internalType": "string",
          "name": "descriptor",
          "type": "string"
        }
      ],
      "name": "createStat",
      "outputs": [
        {
          "internalType": "uint256",
          "name": "statID",
          "type": "uint256"
        }
      ],
      "stateMutability": "nonpayable",
      "type": "function"
    },
    {
      "inputs": [
        {
          "internalType": "uint256",
          "name": "statID",
          "type": "uint256"
        }
      ],
      "name": "describeStat",
      "outputs": [
        {
          "internalType": "string",
          "name": "",
          "type": "string"
        }
      ],
      "stateMutability": "view",
      "type": "function"
    },
    {
      "inputs": [
        {
          "internalType": "address",
          "name": "tokenAddress",
          "type": "address"
        },
        {
          "internalType": "uint256",
          "name": "tokenID",
          "type": "uint256"
        },
        {
          "internalType": "uint256[]",
          "name": "statIDs",
          "type": "uint256[]"
        }
      ],
      "name": "getStats",
      "outputs": [
        {
          "internalType": "uint256[]",
          "name": "",
          "type": "uint256[]"
        }
      ],
      "stateMutability": "view",
      "type": "function"
    },
    {
      "inputs": [
        {
          "internalType": "address",
          "name": "account",
          "type": "address"
        }
      ],
      "name": "isAdministrator",
      "outputs": [
        {
          "internalType": "bool",
          "name": "",
          "type": "bool"
        }
      ],
      "stateMutability": "view",
      "type": "function"
    },
    {
      "inputs": [
        {
          "internalType": "uint256",
          "name": "statID",
          "type": "uint256"
        },
        {
          "internalType": "string",
          "name": "descriptor",
          "type": "string"
        }
      ],
      "name": "setStatDescriptor",
      "outputs": [],
      "stateMutability": "nonpayable",
      "type": "function"
    },
    {
      "inputs": [
        {
          "internalType": "address",
          "name": "nftAddress",
          "type": "address"
        },
        {
          "internalType": "uint256",
          "name": "tokenID",
          "type": "uint256"
        },
        {
          "internalType": "enum PlayerType",
          "name": "role",
          "type": "uint8"
        }
      ],
      "name": "startSession",
      "outputs": [
        {
          "internalType": "uint256",
          "name": "",
          "type": "uint256"
        }
      ],
      "stateMutability": "nonpayable",
      "type": "function"
    },
    {
      "inputs": [],
      "name": "statBlockVersion",
      "outputs": [
        {
          "internalType": "string",
          "name": "",
          "type": "string"
        }
      ],
      "stateMutability": "view",
      "type": "function"
    }
  ],
  "bytecode": {
    "object": "0x60c06040526005608090815264302e302e3160d81b60a0526000906200002690826200013a565b503480156200003457600080fd5b5060405162001c7a38038062001c7a833981016040819052620000579162000223565b600480546001600160a01b039586166001600160a01b031991821617909155600593909355600691909155600780549190931691161790556200026e565b634e487b7160e01b600052604160045260246000fd5b600181811c90821680620000c057607f821691505b602082108103620000e157634e487b7160e01b600052602260045260246000fd5b50919050565b601f8211156200013557600081815260208120601f850160051c81016020861015620001105750805b601f850160051c820191505b8181101562000131578281556001016200011c565b5050505b505050565b81516001600160401b0381111562000156576200015662000095565b6200016e81620001678454620000ab565b84620000e7565b602080601f831160018114620001a657600084156200018d5750858301515b600019600386901b1c1916600185901b17855562000131565b600085815260208120601f198616915b82811015620001d757888601518255948401946001909101908401620001b6565b5085821015620001f65787850151600019600388901b60f8161c191681555b5050505050600190811b01905550565b80516001600160a01b03811681146200021e57600080fd5b919050565b600080600080608085870312156200023a57600080fd5b620002458562000206565b93506020850151925060408501519150620002636060860162000206565b905092959194509250565b6119fc806200027e6000396000f3fe608060405234801561001057600080fd5b50600436106101205760003560e01c80635b5c251f116100ad578063b29e825611610071578063b29e8256146102ba578063cfad39b1146102cd578063d49b537f146102e2578063f1fb61e0146102f9578063f799b0301461030c57600080fd5b80635b5c251f146102155780635d1c9723146102405780638e171f7414610253578063a1ca6a1414610273578063a9ac652c146102a757600080fd5b80631b720f9a116100f45780631b720f9a1461018b578063241537ef1461019457806333603f6a146101bf5780633728f0c1146101df5780633793d6931461020c57600080fd5b806204aaad146101255780630a2eb30114610141578063105b039c1461016d5780631911227d14610182575b600080fd5b61012e60085481565b6040519081526020015b60405180910390f35b61015d61014f3660046110ad565b6001600160a01b0316301490565b6040519015158152602001610138565b61017561031f565b6040516101389190611115565b61012e60065481565b61012e60015481565b61012e6101a2366004611128565b600b60209081526000928352604080842090915290825290205481565b6101d26101cd366004611288565b6103ad565b604051610138919061130f565b6101f26101ed366004611399565b610513565b6040516101389e9d9c9b9a99989796959493929190611425565b61012e60055481565b600754610228906001600160a01b031681565b6040516001600160a01b039091168152602001610138565b61012e61024e36600461154f565b610822565b61026661026136600461158b565b61094c565b60405161013891906115d7565b610228610281366004611128565b600a6020908152600092835260408084209091529082529020546001600160a01b031681565b6101756102b5366004611399565b610a21565b600454610228906001600160a01b031681565b6102e06102db36600461161b565b610ac3565b005b61012e6102f0366004611661565b60009392505050565b6102e06103073660046116a5565b610ba7565b6102e061031a3660046117a1565b610dcb565b6000805461032c90611841565b80601f016020809104026020016040519081016040528092919081815260200182805461035890611841565b80156103a55780601f1061037a576101008083540402835291602001916103a5565b820191906000526020600020905b81548152906001019060200180831161038857829003601f168201915b505050505081565b606082518451146104405760405162461bcd60e51b815260206004820152604c60248201527f53746174426c6f636b2e626174636847657453746174733a20746f6b656e416460448201527f6472657373657320616e6420746f6b656e494473206d7573742062652074686560648201526b040e6c2daca40d8cadccee8d60a31b608482015260a4015b60405180910390fd5b600084516001600160401b0381111561045b5761045b611152565b60405190808252806020026020018201604052801561048e57816020015b60608152602001906001900390816104795790505b50905060005b855181101561050a576104da8682815181106104b2576104b261187b565b60200260200101518683815181106104cc576104cc61187b565b60200260200101518661094c565b8282815181106104ec576104ec61187b565b6020026020010181905250808061050290611891565b915050610494565b50949350505050565b600960205260009081526040902080546001820154600283015460038401546004850154600586018054959694956001600160a01b0390941694929360ff808416946101009094041692919061056890611841565b80601f016020809104026020016040519081016040528092919081815260200182805461059490611841565b80156105e15780601f106105b6576101008083540402835291602001916105e1565b820191906000526020600020905b8154815290600101906020018083116105c457829003601f168201915b5050604080516080810190915260068601805482526007870154959695919450925060208401915060ff16600381111561061d5761061d6113b2565b600381111561062e5761062e6113b2565b81526020016001820160019054906101000a900460ff166004811115610656576106566113b2565b6004811115610667576106676113b2565b81526020016001820160029054906101000a900460ff16600481111561068f5761068f6113b2565b60048111156106a0576106a06113b2565b90525060088201546009830154600a840154600b8501805494956001600160a01b0390941694929360ff8084169461010090940416929091906106e290611841565b80601f016020809104026020016040519081016040528092919081815260200182805461070e90611841565b801561075b5780601f106107305761010080835404028352916020019161075b565b820191906000526020600020905b81548152906001019060200180831161073e57829003601f168201915b50506040805160808101909152600c860180548252600d870154959695919450925060208401915060ff166003811115610797576107976113b2565b60038111156107a8576107a86113b2565b81526020016001820160019054906101000a900460ff1660048111156107d0576107d06113b2565b60048111156107e1576107e16113b2565b81526020016001820160029054906101000a900460ff166004811115610809576108096113b2565b600481111561081a5761081a6113b2565b90525090508e565b60003033146108ac5760405162461bcd60e51b815260206004820152604a60248201527f53746174426c6f636b2e637265617465537461743a206d73672e73656e64657260448201527f206d75737420626520616e2061646d696e6973747261746f72206f66207468656064820152692053746174426c6f636b60b01b608482015260a401610437565b6001600081546108bb90611891565b918290555060008181526002602052604090209091506108db8382611907565b506040518181527ff3ce573c45b8324851954086f08ec04e99547734a450e4f5f885be29e72a8af89060200160405180910390a1807f0dd15a6119f41ee2fe5e35cf9a28a004ce1064b98c9b37e3f9fcb6386f078c698360405161093f9190611115565b60405180910390a2919050565b6060600082516001600160401b0381111561096957610969611152565b604051908082528060200260200182016040528015610992578160200160208202803683370190505b50905060005b835181101561050a576001600160a01b0386166000908152600360209081526040808320888452909152812085519091908690849081106109db576109db61187b565b6020026020010151815260200190815260200160002054828281518110610a0457610a0461187b565b602090810291909101015280610a1981611891565b915050610998565b6000818152600260205260409020805460609190610a3e90611841565b80601f0160208091040260200160405190810160405280929190818152602001828054610a6a90611841565b8015610ab75780601f10610a8c57610100808354040283529160200191610ab7565b820191906000526020600020905b815481529060010190602001808311610a9a57829003601f168201915b50505050509050919050565b303314610b525760405162461bcd60e51b815260206004820152605160248201527f53746174426c6f636b2e7365745374617444657363726970746f723a206d736760448201527f2e73656e646572206d75737420626520616e2061646d696e6973747261746f72606482015270206f66207468652053746174426c6f636b60781b608482015260a401610437565b6000828152600260205260409020610b6a8282611907565b50817f0dd15a6119f41ee2fe5e35cf9a28a004ce1064b98c9b37e3f9fcb6386f078c6982604051610b9b9190611115565b60405180910390a25050565b303314610c305760405162461bcd60e51b815260206004820152604b60248201527f53746174426c6f636b2e61737369676e53746174733a206d73672e73656e646560448201527f72206d75737420626520616e2061646d696e6973747261746f72206f6620746860648201526a652053746174426c6f636b60a81b608482015260a401610437565b8051825114610cb15760405162461bcd60e51b815260206004820152604160248201527f53746174426c6f636b2e61737369676e53746174733a2073746174494473206160448201527f6e642076616c756573206d757374206265207468652073616d65206c656e67746064820152600d60fb1b608482015260a401610437565b60005b8251811015610dc457818181518110610ccf57610ccf61187b565b602002602001015160036000876001600160a01b03166001600160a01b0316815260200190815260200160002060008681526020019081526020016000206000858481518110610d2157610d2161187b565b6020026020010151815260200190815260200160002081905550828181518110610d4d57610d4d61187b565b602002602001015184866001600160a01b03167fe9b793c30dcdfe88c097c6514559ea9906629911c611bfef29cea40525bf3c4a858581518110610d9357610d9361187b565b6020026020010151604051610daa91815260200190565b60405180910390a480610dbc81611891565b915050610cb4565b5050505050565b303314610e595760405162461bcd60e51b815260206004820152605060248201527f53746174426c6f636b2e626174636841737369676e53746174733a206d73672e60448201527f73656e646572206d75737420626520616e2061646d696e6973747261746f722060648201526f6f66207468652053746174426c6f636b60801b608482015260a401610437565b8251845114610ee85760405162461bcd60e51b815260206004820152604f60248201527f53746174426c6f636b2e626174636841737369676e53746174733a20746f6b6560448201527f6e41646472657373657320616e6420746f6b656e494473206d7573742062652060648201526e0e8d0ca40e6c2daca40d8cadccee8d608b1b608482015260a401610437565b8151845114610f765760405162461bcd60e51b815260206004820152604e60248201527f53746174426c6f636b2e626174636841737369676e53746174733a20746f6b6560448201527f6e41646472657373657320616e642073746174494473206d757374206265207460648201526d0d0ca40e6c2daca40d8cadccee8d60931b608482015260a401610437565b80518451146110035760405162461bcd60e51b815260206004820152604d60248201527f53746174426c6f636b2e626174636841737369676e53746174733a20746f6b6560448201527f6e41646472657373657320616e642076616c756573206d75737420626520746860648201526c0ca40e6c2daca40d8cadccee8d609b1b608482015260a401610437565b60005b8451811015610dc45761107f8582815181106110245761102461187b565b602002602001015185838151811061103e5761103e61187b565b60200260200101518584815181106110585761105861187b565b60200260200101518585815181106110725761107261187b565b6020026020010151610ba7565b8061108981611891565b915050611006565b80356001600160a01b03811681146110a857600080fd5b919050565b6000602082840312156110bf57600080fd5b6110c882611091565b9392505050565b6000815180845260005b818110156110f5576020818501810151868301820152016110d9565b506000602082860101526020601f19601f83011685010191505092915050565b6020815260006110c860208301846110cf565b6000806040838503121561113b57600080fd5b61114483611091565b946020939093013593505050565b634e487b7160e01b600052604160045260246000fd5b604051601f8201601f191681016001600160401b038111828210171561119057611190611152565b604052919050565b60006001600160401b038211156111b1576111b1611152565b5060051b60200190565b600082601f8301126111cc57600080fd5b813560206111e16111dc83611198565b611168565b82815260059290921b8401810191818101908684111561120057600080fd5b8286015b848110156112225761121581611091565b8352918301918301611204565b509695505050505050565b600082601f83011261123e57600080fd5b8135602061124e6111dc83611198565b82815260059290921b8401810191818101908684111561126d57600080fd5b8286015b848110156112225780358352918301918301611271565b60008060006060848603121561129d57600080fd5b83356001600160401b03808211156112b457600080fd5b6112c0878388016111bb565b945060208601359150808211156112d657600080fd5b6112e28783880161122d565b935060408601359150808211156112f857600080fd5b506113058682870161122d565b9150509250925092565b6000602080830181845280855180835260408601915060408160051b87010192508387016000805b8381101561138b57888603603f19018552825180518088529088019088880190845b818110156113755783518352928a0192918a0191600101611359565b5090975050509386019391860191600101611337565b509398975050505050505050565b6000602082840312156113ab57600080fd5b5035919050565b634e487b7160e01b600052602160045260246000fd5b600581106113d8576113d86113b2565b50565b805182526020810151600481106113f4576113f46113b2565b60208301526040810151611407816113c8565b6040830152606081015161141a816113c8565b806060840152505050565b8e8152602081018e90526001600160a01b038d166040820152606081018c90528a1515608082015289151560a082015261028060c0820152600061146d61028083018b6110cf565b61147a60e084018b6113db565b6001600160a01b038916610160840152876101808401526114a06101a084018815159052565b8515156101c08401528281036101e08401526114bc81866110cf565b9150506114cd6102008301846113db565b9f9e505050505050505050505050505050565b600082601f8301126114f157600080fd5b81356001600160401b0381111561150a5761150a611152565b61151d601f8201601f1916602001611168565b81815284602083860101111561153257600080fd5b816020850160208301376000918101602001919091529392505050565b60006020828403121561156157600080fd5b81356001600160401b0381111561157757600080fd5b611583848285016114e0565b949350505050565b6000806000606084860312156115a057600080fd5b6115a984611091565b92506020840135915060408401356001600160401b038111156115cb57600080fd5b6113058682870161122d565b6020808252825182820181905260009190848201906040850190845b8181101561160f578351835292840192918401916001016115f3565b50909695505050505050565b6000806040838503121561162e57600080fd5b8235915060208301356001600160401b0381111561164b57600080fd5b611657858286016114e0565b9150509250929050565b60008060006060848603121561167657600080fd5b61167f84611091565b92506020840135915060408401356002811061169a57600080fd5b809150509250925092565b600080600080608085870312156116bb57600080fd5b6116c485611091565b93506020850135925060408501356001600160401b03808211156116e757600080fd5b6116f38883890161122d565b9350606087013591508082111561170957600080fd5b506117168782880161122d565b91505092959194509250565b600082601f83011261173357600080fd5b813560206117436111dc83611198565b82815260059290921b8401810191818101908684111561176257600080fd5b8286015b848110156112225780356001600160401b038111156117855760008081fd5b6117938986838b010161122d565b845250918301918301611766565b600080600080608085870312156117b757600080fd5b84356001600160401b03808211156117ce57600080fd5b6117da888389016111bb565b955060208701359150808211156117f057600080fd5b6117fc8883890161122d565b9450604087013591508082111561181257600080fd5b61181e88838901611722565b9350606087013591508082111561183457600080fd5b5061171687828801611722565b600181811c9082168061185557607f821691505b60208210810361187557634e487b7160e01b600052602260045260246000fd5b50919050565b634e487b7160e01b600052603260045260246000fd5b6000600182016118b157634e487b7160e01b600052601160045260246000fd5b5060010190565b601f82111561190257600081815260208120601f850160051c810160208610156118df5750805b601f850160051c820191505b818110156118fe578281556001016118eb565b5050505b505050565b81516001600160401b0381111561192057611920611152565b6119348161192e8454611841565b846118b8565b602080601f83116001811461196957600084156119515750858301515b600019600386901b1c1916600185901b1785556118fe565b600085815260208120601f198616915b8281101561199857888601518255948401946001909101908401611979565b50858210156119b65787850151600019600388901b60f8161c191681555b5050505050600190811b0190555056fea2646970667358221220f3a15616b478e7835c469dff25ae1f5e17a695874910b0331d486c7fafd02f5664736f6c63430008150033",
    "linkReferences": {}
  },
  "methodIdentifiers": {
    "FeeTokenAddress()": "b29e8256",
    "NumSessions()": "0004aaad",
    "NumStats()": "1b720f9a",
    "SessionJoinPrice()": "1911227d",
    "SessionStartPrice()": "3793d693",
    "SessionState(uint256)": "3728f0c1",
    "StakedSession(address,uint256)": "241537ef",
    "Staker(address,uint256)": "a1ca6a14",
    "TreasuryAddress()": "5b5c251f",
    "assignStats(address,uint256,uint256[],uint256[])": "f1fb61e0",
    "batchAssignStats(address[],uint256[],uint256[][],uint256[][])": "f799b030",
    "batchGetStats(address[],uint256[],uint256[])": "33603f6a",
    "createStat(string)": "5d1c9723",
    "describeStat(uint256)": "a9ac652c",
    "getStats(address,uint256,uint256[])": "8e171f74",
    "isAdministrator(address)": "0a2eb301",
    "setStatDescriptor(uint256,string)": "cfad39b1",
    "startSession(address,uint256,uint8)": "d49b537f",
    "statBlockVersion()": "105b039c"
  },
  "id": 5
}