{
  "abi": [
    {
      "inputs": [
        {
          "internalType": "address",
          "name": "feeTokenAddress",
          "type": "address"
        },
        {
          "internalType": "uint256",
          "name": "sessionStartPrice",
          "type": "uint256"
        },
        {
          "internalType": "uint256",
          "name": "sessionJoinPrice",
          "type": "uint256"
        },
        {
          "internalType": "address",
          "name": "treasuryAddress",
          "type": "address"
        },
        {
          "internalType": "uint256",
          "name": "blocksPerPhase",
          "type": "uint256"
        }
      ],
      "stateMutability": "nonpayable",
      "type": "constructor"
    },
    {
      "anonymous": false,
      "inputs": [
        {
          "indexed": true,
          "internalType": "uint256",
          "name": "sessionID",
          "type": "uint256"
        },
        {
          "indexed": true,
          "internalType": "address",
          "name": "nftAddress",
          "type": "address"
        },
        {
          "indexed": true,
          "internalType": "uint256",
          "name": "tokenID",
          "type": "uint256"
        },
        {
          "indexed": false,
          "internalType": "enum PlayerType",
          "name": "role",
          "type": "uint8"
        }
      ],
      "name": "SessionStarted",
      "type": "event"
    },
    {
      "anonymous": false,
      "inputs": [
        {
          "indexed": true,
          "internalType": "address",
          "name": "tokenAddress",
          "type": "address"
        },
        {
          "indexed": true,
          "internalType": "uint256",
          "name": "tokenID",
          "type": "uint256"
        },
        {
          "indexed": true,
          "internalType": "uint256",
          "name": "statID",
          "type": "uint256"
        },
        {
          "indexed": false,
          "internalType": "uint256",
          "name": "value",
          "type": "uint256"
        }
      ],
      "name": "StatAssigned",
      "type": "event"
    },
    {
      "anonymous": false,
      "inputs": [
        {
          "indexed": false,
          "internalType": "uint256",
          "name": "statID",
          "type": "uint256"
        }
      ],
      "name": "StatCreated",
      "type": "event"
    },
    {
      "anonymous": false,
      "inputs": [
        {
          "indexed": true,
          "internalType": "uint256",
          "name": "statID",
          "type": "uint256"
        },
        {
          "indexed": false,
          "internalType": "string",
          "name": "descriptor",
          "type": "string"
        }
      ],
      "name": "StatDescriptorUpdated",
      "type": "event"
    },
    {
      "inputs": [],
      "name": "BlocksPerPhase",
      "outputs": [
        {
          "internalType": "uint256",
          "name": "",
          "type": "uint256"
        }
      ],
      "stateMutability": "view",
      "type": "function"
    },
    {
      "inputs": [],
      "name": "FeeTokenAddress",
      "outputs": [
        {
          "internalType": "address",
          "name": "",
          "type": "address"
        }
      ],
      "stateMutability": "view",
      "type": "function"
    },
    {
      "inputs": [],
      "name": "NumSessions",
      "outputs": [
        {
          "internalType": "uint256",
          "name": "",
          "type": "uint256"
        }
      ],
      "stateMutability": "view",
      "type": "function"
    },
    {
      "inputs": [],
      "name": "NumStats",
      "outputs": [
        {
          "internalType": "uint256",
          "name": "",
          "type": "uint256"
        }
      ],
      "stateMutability": "view",
      "type": "function"
    },
    {
      "inputs": [],
      "name": "SessionJoinPrice",
      "outputs": [
        {
          "internalType": "uint256",
          "name": "",
          "type": "uint256"
        }
      ],
      "stateMutability": "view",
      "type": "function"
    },
    {
      "inputs": [],
      "name": "SessionStartPrice",
      "outputs": [
        {
          "internalType": "uint256",
          "name": "",
          "type": "uint256"
        }
      ],
      "stateMutability": "view",
      "type": "function"
    },
    {
      "inputs": [
        {
          "internalType": "uint256",
          "name": "",
          "type": "uint256"
        }
      ],
      "name": "SessionState",
      "outputs": [
        {
          "internalType": "uint256",
          "name": "startBlock",
          "type": "uint256"
        },
        {
          "internalType": "uint256",
          "name": "commitmentsBlock",
          "type": "uint256"
        },
        {
          "internalType": "address",
          "name": "pitcherAddress",
          "type": "address"
        },
        {
          "internalType": "uint256",
          "name": "pitcherTokenID",
          "type": "uint256"
        },
        {
          "internalType": "bool",
          "name": "didPitcherCommit",
          "type": "bool"
        },
        {
          "internalType": "bool",
          "name": "didPitcherReveal",
          "type": "bool"
        },
        {
          "internalType": "bytes",
          "name": "pitcherCommit",
          "type": "bytes"
        },
        {
          "components": [
            {
              "internalType": "uint256",
              "name": "nonce",
              "type": "uint256"
            },
            {
              "internalType": "enum PitchType",
              "name": "kind",
              "type": "uint8"
            },
            {
              "internalType": "enum VerticalLocation",
              "name": "vertical",
              "type": "uint8"
            },
            {
              "internalType": "enum HorizontalLocation",
              "name": "horizontal",
              "type": "uint8"
            }
          ],
          "internalType": "struct Pitch",
          "name": "pitcherReveal",
          "type": "tuple"
        },
        {
          "internalType": "address",
          "name": "batterAddress",
          "type": "address"
        },
        {
          "internalType": "uint256",
          "name": "batterTokenID",
          "type": "uint256"
        },
        {
          "internalType": "bool",
          "name": "didBatterCommit",
          "type": "bool"
        },
        {
          "internalType": "bool",
          "name": "didBatterReveal",
          "type": "bool"
        },
        {
          "internalType": "bytes",
          "name": "batterCommit",
          "type": "bytes"
        },
        {
          "components": [
            {
              "internalType": "uint256",
              "name": "nonce",
              "type": "uint256"
            },
            {
              "internalType": "enum SwingType",
              "name": "kind",
              "type": "uint8"
            },
            {
              "internalType": "enum VerticalLocation",
              "name": "vertical",
              "type": "uint8"
            },
            {
              "internalType": "enum HorizontalLocation",
              "name": "horizontal",
              "type": "uint8"
            }
          ],
          "internalType": "struct Swing",
          "name": "batterReveal",
          "type": "tuple"
        }
      ],
      "stateMutability": "view",
      "type": "function"
    },
    {
      "inputs": [
        {
          "internalType": "address",
          "name": "",
          "type": "address"
        },
        {
          "internalType": "uint256",
          "name": "",
          "type": "uint256"
        }
      ],
      "name": "StakedSession",
      "outputs": [
        {
          "internalType": "uint256",
          "name": "",
          "type": "uint256"
        }
      ],
      "stateMutability": "view",
      "type": "function"
    },
    {
      "inputs": [
        {
          "internalType": "address",
          "name": "",
          "type": "address"
        },
        {
          "internalType": "uint256",
          "name": "",
          "type": "uint256"
        }
      ],
      "name": "Staker",
      "outputs": [
        {
          "internalType": "address",
          "name": "",
          "type": "address"
        }
      ],
      "stateMutability": "view",
      "type": "function"
    },
    {
      "inputs": [],
      "name": "TreasuryAddress",
      "outputs": [
        {
          "internalType": "address",
          "name": "",
          "type": "address"
        }
      ],
      "stateMutability": "view",
      "type": "function"
    },
    {
      "inputs": [
        {
          "internalType": "address",
          "name": "tokenAddress",
          "type": "address"
        },
        {
          "internalType": "uint256",
          "name": "tokenID",
          "type": "uint256"
        },
        {
          "internalType": "uint256[]",
          "name": "statIDs",
          "type": "uint256[]"
        },
        {
          "internalType": "uint256[]",
          "name": "values",
          "type": "uint256[]"
        }
      ],
      "name": "assignStats",
      "outputs": [],
      "stateMutability": "nonpayable",
      "type": "function"
    },
    {
      "inputs": [
        {
          "internalType": "address[]",
          "name": "tokenAddresses",
          "type": "address[]"
        },
        {
          "internalType": "uint256[]",
          "name": "tokenIDs",
          "type": "uint256[]"
        },
        {
          "internalType": "uint256[][]",
          "name": "statIDs",
          "type": "uint256[][]"
        },
        {
          "internalType": "uint256[][]",
          "name": "values",
          "type": "uint256[][]"
        }
      ],
      "name": "batchAssignStats",
      "outputs": [],
      "stateMutability": "nonpayable",
      "type": "function"
    },
    {
      "inputs": [
        {
          "internalType": "address[]",
          "name": "tokenAddresses",
          "type": "address[]"
        },
        {
          "internalType": "uint256[]",
          "name": "tokenIDs",
          "type": "uint256[]"
        },
        {
          "internalType": "uint256[]",
          "name": "statIDs",
          "type": "uint256[]"
        }
      ],
      "name": "batchGetStats",
      "outputs": [
        {
          "internalType": "uint256[][]",
          "name": "",
          "type": "uint256[][]"
        }
      ],
      "stateMutability": "view",
      "type": "function"
    },
    {
      "inputs": [
        {
          "internalType": "string",
          "name": "descriptor",
          "type": "string"
        }
      ],
      "name": "createStat",
      "outputs": [
        {
          "internalType": "uint256",
          "name": "statID",
          "type": "uint256"
        }
      ],
      "stateMutability": "nonpayable",
      "type": "function"
    },
    {
      "inputs": [
        {
          "internalType": "uint256",
          "name": "statID",
          "type": "uint256"
        }
      ],
      "name": "describeStat",
      "outputs": [
        {
          "internalType": "string",
          "name": "",
          "type": "string"
        }
      ],
      "stateMutability": "view",
      "type": "function"
    },
    {
      "inputs": [
        {
          "internalType": "address",
          "name": "tokenAddress",
          "type": "address"
        },
        {
          "internalType": "uint256",
          "name": "tokenID",
          "type": "uint256"
        },
        {
          "internalType": "uint256[]",
          "name": "statIDs",
          "type": "uint256[]"
        }
      ],
      "name": "getStats",
      "outputs": [
        {
          "internalType": "uint256[]",
          "name": "",
          "type": "uint256[]"
        }
      ],
      "stateMutability": "view",
      "type": "function"
    },
    {
      "inputs": [
        {
          "internalType": "address",
          "name": "account",
          "type": "address"
        }
      ],
      "name": "isAdministrator",
      "outputs": [
        {
          "internalType": "bool",
          "name": "",
          "type": "bool"
        }
      ],
      "stateMutability": "view",
      "type": "function"
    },
    {
      "inputs": [
        {
          "internalType": "uint256",
          "name": "statID",
          "type": "uint256"
        },
        {
          "internalType": "string",
          "name": "descriptor",
          "type": "string"
        }
      ],
      "name": "setStatDescriptor",
      "outputs": [],
      "stateMutability": "nonpayable",
      "type": "function"
    },
    {
      "inputs": [
        {
          "internalType": "address",
          "name": "nftAddress",
          "type": "address"
        },
        {
          "internalType": "uint256",
          "name": "tokenID",
          "type": "uint256"
        },
        {
          "internalType": "enum PlayerType",
          "name": "role",
          "type": "uint8"
        }
      ],
      "name": "startSession",
      "outputs": [
        {
          "internalType": "uint256",
          "name": "",
          "type": "uint256"
        }
      ],
      "stateMutability": "nonpayable",
      "type": "function"
    },
    {
      "inputs": [],
      "name": "statBlockVersion",
      "outputs": [
        {
          "internalType": "string",
          "name": "",
          "type": "string"
        }
      ],
      "stateMutability": "view",
      "type": "function"
    }
  ],
  "bytecode": {
    "object": "0x60c06040526005608090815264302e302e3160d81b60a0526000906200002690826200013f565b503480156200003457600080fd5b5060405162001f0638038062001f06833981016040819052620000579162000228565b600480546001600160a01b03199081166001600160a01b03978816179091556005949094556006929092556007805490931693169290921790556008556200027d565b634e487b7160e01b600052604160045260246000fd5b600181811c90821680620000c557607f821691505b602082108103620000e657634e487b7160e01b600052602260045260246000fd5b50919050565b601f8211156200013a57600081815260208120601f850160051c81016020861015620001155750805b601f850160051c820191505b81811015620001365782815560010162000121565b5050505b505050565b81516001600160401b038111156200015b576200015b6200009a565b62000173816200016c8454620000b0565b84620000ec565b602080601f831160018114620001ab5760008415620001925750858301515b600019600386901b1c1916600185901b17855562000136565b600085815260208120601f198616915b82811015620001dc57888601518255948401946001909101908401620001bb565b5085821015620001fb5787850151600019600388901b60f8161c191681555b5050505050600190811b01905550565b80516001600160a01b03811681146200022357600080fd5b919050565b600080600080600060a086880312156200024157600080fd5b6200024c866200020b565b945060208601519350604086015192506200026a606087016200020b565b9150608086015190509295509295909350565b611c79806200028d6000396000f3fe608060405234801561001057600080fd5b506004361061012b5760003560e01c80635d1c9723116100ad578063cfad39b111610071578063cfad39b1146102d8578063d49b537f146102ed578063d7d9e60114610300578063f1fb61e014610309578063f799b0301461031c57600080fd5b80635d1c97231461024b5780638e171f741461025e578063a1ca6a141461027e578063a9ac652c146102b2578063b29e8256146102c557600080fd5b8063241537ef116100f4578063241537ef1461019f57806333603f6a146101ca5780633728f0c1146101ea5780633793d693146102175780635b5c251f1461022057600080fd5b806204aaad146101305780630a2eb3011461014c578063105b039c146101785780631911227d1461018d5780631b720f9a14610196575b600080fd5b61013960095481565b6040519081526020015b60405180910390f35b61016861015a3660046112ea565b6001600160a01b0316301490565b6040519015158152602001610143565b61018061032f565b6040516101439190611354565b61013960065481565b61013960015481565b6101396101ad366004611367565b600c60209081526000928352604080842090915290825290205481565b6101dd6101d83660046114cb565b6103bd565b6040516101439190611552565b6101fd6101f83660046115dc565b610523565b6040516101439e9d9c9b9a99989796959493929190611665565b61013960055481565b600754610233906001600160a01b031681565b6040516001600160a01b039091168152602001610143565b61013961025936600461178f565b610832565b61027161026c3660046117cb565b61095c565b6040516101439190611819565b61023361028c366004611367565b600b6020908152600092835260408084209091529082529020546001600160a01b031681565b6101806102c03660046115dc565b610a31565b600454610233906001600160a01b031681565b6102eb6102e636600461185d565b610ad3565b005b6101396102fb3660046118a3565b610bb7565b61013960085481565b6102eb6103173660046118e9565b610de8565b6102eb61032a3660046119e7565b61100c565b6000805461033c90611a87565b80601f016020809104026020016040519081016040528092919081815260200182805461036890611a87565b80156103b55780601f1061038a576101008083540402835291602001916103b5565b820191906000526020600020905b81548152906001019060200180831161039857829003601f168201915b505050505081565b606082518451146104505760405162461bcd60e51b815260206004820152604c60248201527f53746174426c6f636b2e626174636847657453746174733a20746f6b656e416460448201527f6472657373657320616e6420746f6b656e494473206d7573742062652074686560648201526b040e6c2daca40d8cadccee8d60a31b608482015260a4015b60405180910390fd5b600084516001600160401b0381111561046b5761046b611393565b60405190808252806020026020018201604052801561049e57816020015b60608152602001906001900390816104895790505b50905060005b855181101561051a576104ea8682815181106104c2576104c2611ac1565b60200260200101518683815181106104dc576104dc611ac1565b60200260200101518661095c565b8282815181106104fc576104fc611ac1565b6020026020010181905250808061051290611ad7565b9150506104a4565b50949350505050565b600a60205260009081526040902080546001820154600283015460038401546004850154600586018054959694956001600160a01b0390941694929360ff808416946101009094041692919061057890611a87565b80601f01602080910402602001604051908101604052809291908181526020018280546105a490611a87565b80156105f15780601f106105c6576101008083540402835291602001916105f1565b820191906000526020600020905b8154815290600101906020018083116105d457829003601f168201915b5050604080516080810190915260068601805482526007870154959695919450925060208401915060ff16600381111561062d5761062d6115f5565b600381111561063e5761063e6115f5565b81526020016001820160019054906101000a900460ff166004811115610666576106666115f5565b6004811115610677576106776115f5565b81526020016001820160029054906101000a900460ff16600481111561069f5761069f6115f5565b60048111156106b0576106b06115f5565b90525060088201546009830154600a840154600b8501805494956001600160a01b0390941694929360ff8084169461010090940416929091906106f290611a87565b80601f016020809104026020016040519081016040528092919081815260200182805461071e90611a87565b801561076b5780601f106107405761010080835404028352916020019161076b565b820191906000526020600020905b81548152906001019060200180831161074e57829003601f168201915b50506040805160808101909152600c860180548252600d870154959695919450925060208401915060ff1660038111156107a7576107a76115f5565b60038111156107b8576107b86115f5565b81526020016001820160019054906101000a900460ff1660048111156107e0576107e06115f5565b60048111156107f1576107f16115f5565b81526020016001820160029054906101000a900460ff166004811115610819576108196115f5565b600481111561082a5761082a6115f5565b90525090508e565b60003033146108bc5760405162461bcd60e51b815260206004820152604a60248201527f53746174426c6f636b2e637265617465537461743a206d73672e73656e64657260448201527f206d75737420626520616e2061646d696e6973747261746f72206f66207468656064820152692053746174426c6f636b60b01b608482015260a401610447565b6001600081546108cb90611ad7565b918290555060008181526002602052604090209091506108eb8382611b4d565b506040518181527ff3ce573c45b8324851954086f08ec04e99547734a450e4f5f885be29e72a8af89060200160405180910390a1807f0dd15a6119f41ee2fe5e35cf9a28a004ce1064b98c9b37e3f9fcb6386f078c698360405161094f9190611354565b60405180910390a2919050565b6060600082516001600160401b0381111561097957610979611393565b6040519080825280602002602001820160405280156109a2578160200160208202803683370190505b50905060005b835181101561051a576001600160a01b0386166000908152600360209081526040808320888452909152812085519091908690849081106109eb576109eb611ac1565b6020026020010151815260200190815260200160002054828281518110610a1457610a14611ac1565b602090810291909101015280610a2981611ad7565b9150506109a8565b6000818152600260205260409020805460609190610a4e90611a87565b80601f0160208091040260200160405190810160405280929190818152602001828054610a7a90611a87565b8015610ac75780601f10610a9c57610100808354040283529160200191610ac7565b820191906000526020600020905b815481529060010190602001808311610aaa57829003601f168201915b50505050509050919050565b303314610b625760405162461bcd60e51b815260206004820152605160248201527f53746174426c6f636b2e7365745374617444657363726970746f723a206d736760448201527f2e73656e646572206d75737420626520616e2061646d696e6973747261746f72606482015270206f66207468652053746174426c6f636b60781b608482015260a401610447565b6000828152600260205260409020610b7a8282611b4d565b50817f0dd15a6119f41ee2fe5e35cf9a28a004ce1064b98c9b37e3f9fcb6386f078c6982604051610bab9190611354565b60405180910390a25050565b6009805460009182610bc883611ad7565b90915550506040516331a9108f60e11b81526004810184905284906000906001600160a01b03831690636352211e90602401602060405180830381865afa158015610c17573d6000803e3d6000fd5b505050506040513d601f19601f82011682018060405250810190610c3b9190611c0c565b6001600160a01b038781166000818152600b602090815260408083208b8452825280832080546001600160a01b03191695871695909517909455600954928252600c81528382208a83528152838220839055918152600a909152908120439055909150846001811115610cb057610cb06115f5565b03610cf457600980546000908152600a602052604080822060020180546001600160a01b0319166001600160a01b038b161790559154815220600301859055610d2e565b600980546000908152600a602052604080822060080180546001600160a01b0319166001600160a01b038b16179055825482529020018590555b6040516323b872dd60e01b81526001600160a01b038281166004830152306024830152604482018790528316906323b872dd90606401600060405180830381600087803b158015610d7e57600080fd5b505af1158015610d92573d6000803e3d6000fd5b5050505084866001600160a01b03166009547fbe87d3ef7a611e190e113702d514c225d954a63199570d6ba62c292d1bbaecfa87604051610dd39190611c29565b60405180910390a45050600954949350505050565b303314610e715760405162461bcd60e51b815260206004820152604b60248201527f53746174426c6f636b2e61737369676e53746174733a206d73672e73656e646560448201527f72206d75737420626520616e2061646d696e6973747261746f72206f6620746860648201526a652053746174426c6f636b60a81b608482015260a401610447565b8051825114610ef25760405162461bcd60e51b815260206004820152604160248201527f53746174426c6f636b2e61737369676e53746174733a2073746174494473206160448201527f6e642076616c756573206d757374206265207468652073616d65206c656e67746064820152600d60fb1b608482015260a401610447565b60005b825181101561100557818181518110610f1057610f10611ac1565b602002602001015160036000876001600160a01b03166001600160a01b0316815260200190815260200160002060008681526020019081526020016000206000858481518110610f6257610f62611ac1565b6020026020010151815260200190815260200160002081905550828181518110610f8e57610f8e611ac1565b602002602001015184866001600160a01b03167fe9b793c30dcdfe88c097c6514559ea9906629911c611bfef29cea40525bf3c4a858581518110610fd457610fd4611ac1565b6020026020010151604051610feb91815260200190565b60405180910390a480610ffd81611ad7565b915050610ef5565b5050505050565b30331461109a5760405162461bcd60e51b815260206004820152605060248201527f53746174426c6f636b2e626174636841737369676e53746174733a206d73672e60448201527f73656e646572206d75737420626520616e2061646d696e6973747261746f722060648201526f6f66207468652053746174426c6f636b60801b608482015260a401610447565b82518451146111295760405162461bcd60e51b815260206004820152604f60248201527f53746174426c6f636b2e626174636841737369676e53746174733a20746f6b6560448201527f6e41646472657373657320616e6420746f6b656e494473206d7573742062652060648201526e0e8d0ca40e6c2daca40d8cadccee8d608b1b608482015260a401610447565b81518451146111b75760405162461bcd60e51b815260206004820152604e60248201527f53746174426c6f636b2e626174636841737369676e53746174733a20746f6b6560448201527f6e41646472657373657320616e642073746174494473206d757374206265207460648201526d0d0ca40e6c2daca40d8cadccee8d60931b608482015260a401610447565b80518451146112445760405162461bcd60e51b815260206004820152604d60248201527f53746174426c6f636b2e626174636841737369676e53746174733a20746f6b6560448201527f6e41646472657373657320616e642076616c756573206d75737420626520746860648201526c0ca40e6c2daca40d8cadccee8d609b1b608482015260a401610447565b60005b8451811015611005576112c085828151811061126557611265611ac1565b602002602001015185838151811061127f5761127f611ac1565b602002602001015185848151811061129957611299611ac1565b60200260200101518585815181106112b3576112b3611ac1565b6020026020010151610de8565b806112ca81611ad7565b915050611247565b6001600160a01b03811681146112e757600080fd5b50565b6000602082840312156112fc57600080fd5b8135611307816112d2565b9392505050565b6000815180845260005b8181101561133457602081850181015186830182015201611318565b506000602082860101526020601f19601f83011685010191505092915050565b602081526000611307602083018461130e565b6000806040838503121561137a57600080fd5b8235611385816112d2565b946020939093013593505050565b634e487b7160e01b600052604160045260246000fd5b604051601f8201601f191681016001600160401b03811182821017156113d1576113d1611393565b604052919050565b60006001600160401b038211156113f2576113f2611393565b5060051b60200190565b600082601f83011261140d57600080fd5b8135602061142261141d836113d9565b6113a9565b82815260059290921b8401810191818101908684111561144157600080fd5b8286015b84811015611465578035611458816112d2565b8352918301918301611445565b509695505050505050565b600082601f83011261148157600080fd5b8135602061149161141d836113d9565b82815260059290921b840181019181810190868411156114b057600080fd5b8286015b8481101561146557803583529183019183016114b4565b6000806000606084860312156114e057600080fd5b83356001600160401b03808211156114f757600080fd5b611503878388016113fc565b9450602086013591508082111561151957600080fd5b61152587838801611470565b9350604086013591508082111561153b57600080fd5b5061154886828701611470565b9150509250925092565b6000602080830181845280855180835260408601915060408160051b87010192508387016000805b838110156115ce57888603603f19018552825180518088529088019088880190845b818110156115b85783518352928a0192918a019160010161159c565b509097505050938601939186019160010161157a565b509398975050505050505050565b6000602082840312156115ee57600080fd5b5035919050565b634e487b7160e01b600052602160045260246000fd5b600581106112e7576112e76115f5565b80518252602081015160048110611634576116346115f5565b602083015260408101516116478161160b565b6040830152606081015161165a8161160b565b806060840152505050565b8e8152602081018e90526001600160a01b038d166040820152606081018c90528a1515608082015289151560a082015261028060c082015260006116ad61028083018b61130e565b6116ba60e084018b61161b565b6001600160a01b038916610160840152876101808401526116e06101a084018815159052565b8515156101c08401528281036101e08401526116fc818661130e565b91505061170d61020083018461161b565b9f9e505050505050505050505050505050565b600082601f83011261173157600080fd5b81356001600160401b0381111561174a5761174a611393565b61175d601f8201601f19166020016113a9565b81815284602083860101111561177257600080fd5b816020850160208301376000918101602001919091529392505050565b6000602082840312156117a157600080fd5b81356001600160401b038111156117b757600080fd5b6117c384828501611720565b949350505050565b6000806000606084860312156117e057600080fd5b83356117eb816112d2565b92506020840135915060408401356001600160401b0381111561180d57600080fd5b61154886828701611470565b6020808252825182820181905260009190848201906040850190845b8181101561185157835183529284019291840191600101611835565b50909695505050505050565b6000806040838503121561187057600080fd5b8235915060208301356001600160401b0381111561188d57600080fd5b61189985828601611720565b9150509250929050565b6000806000606084860312156118b857600080fd5b83356118c3816112d2565b9250602084013591506040840135600281106118de57600080fd5b809150509250925092565b600080600080608085870312156118ff57600080fd5b843561190a816112d2565b93506020850135925060408501356001600160401b038082111561192d57600080fd5b61193988838901611470565b9350606087013591508082111561194f57600080fd5b5061195c87828801611470565b91505092959194509250565b600082601f83011261197957600080fd5b8135602061198961141d836113d9565b82815260059290921b840181019181810190868411156119a857600080fd5b8286015b848110156114655780356001600160401b038111156119cb5760008081fd5b6119d98986838b0101611470565b8452509183019183016119ac565b600080600080608085870312156119fd57600080fd5b84356001600160401b0380821115611a1457600080fd5b611a20888389016113fc565b95506020870135915080821115611a3657600080fd5b611a4288838901611470565b94506040870135915080821115611a5857600080fd5b611a6488838901611968565b93506060870135915080821115611a7a57600080fd5b5061195c87828801611968565b600181811c90821680611a9b57607f821691505b602082108103611abb57634e487b7160e01b600052602260045260246000fd5b50919050565b634e487b7160e01b600052603260045260246000fd5b600060018201611af757634e487b7160e01b600052601160045260246000fd5b5060010190565b601f821115611b4857600081815260208120601f850160051c81016020861015611b255750805b601f850160051c820191505b81811015611b4457828155600101611b31565b5050505b505050565b81516001600160401b03811115611b6657611b66611393565b611b7a81611b748454611a87565b84611afe565b602080601f831160018114611baf5760008415611b975750858301515b600019600386901b1c1916600185901b178555611b44565b600085815260208120601f198616915b82811015611bde57888601518255948401946001909101908401611bbf565b5085821015611bfc5787850151600019600388901b60f8161c191681555b5050505050600190811b01905550565b600060208284031215611c1e57600080fd5b8151611307816112d2565b6020810160028310611c3d57611c3d6115f5565b9190529056fea264697066735822122023f437f26a81f78a675d70fece4de5af9f1499ba53ad75fe050b8965679c15ee64736f6c63430008140033",
    "linkReferences": {}
  },
  "methodIdentifiers": {
    "BlocksPerPhase()": "d7d9e601",
    "FeeTokenAddress()": "b29e8256",
    "NumSessions()": "0004aaad",
    "NumStats()": "1b720f9a",
    "SessionJoinPrice()": "1911227d",
    "SessionStartPrice()": "3793d693",
    "SessionState(uint256)": "3728f0c1",
    "StakedSession(address,uint256)": "241537ef",
    "Staker(address,uint256)": "a1ca6a14",
    "TreasuryAddress()": "5b5c251f",
    "assignStats(address,uint256,uint256[],uint256[])": "f1fb61e0",
    "batchAssignStats(address[],uint256[],uint256[][],uint256[][])": "f799b030",
    "batchGetStats(address[],uint256[],uint256[])": "33603f6a",
    "createStat(string)": "5d1c9723",
    "describeStat(uint256)": "a9ac652c",
    "getStats(address,uint256,uint256[])": "8e171f74",
    "isAdministrator(address)": "0a2eb301",
    "setStatDescriptor(uint256,string)": "cfad39b1",
    "startSession(address,uint256,uint8)": "d49b537f",
    "statBlockVersion()": "105b039c"
  },
  "id": 5
}